:020000040000fa
:080000000002040000000000f2
:020000040000fa
:10000800d2020000d2020000d2020000d202000098
:10001800d2020000d2020000d2020000d202000088
:10002800d2020000d2020000d20200001605000031
:10003800d2020000d2020000d2020000d202000068
:10004800d2020000d2020000d20200002e050000f9
:10005800d2020000d2020000d2020000d202000048
:10006800d2020000d2020000d2020000d202000038
:10007800fe040000d2020000d2020000d2020000fa
:10008800d2020000d2020000d2020000d202000018
:10009800d2020000d20200006a050000d20200006d
:1000a800d2020000d2020000d2020000d2020000f8
:1000b800d2020000d2020000d2020000d2020000e8
:1000c800d2020000d2020000d2020000d2020000d8
:1000d800d2020000d2020000d2020000d2020000c8
:1000e800d2020000d2020000d2020000d2020000b8
:1000f800d2020000d2020000d2020000d2020000a8
:10010800d2020000d2020000d2020000d202000097
:10011800d2020000d2020000d2020000d202000087
:10012800d2020000d2020000d2020000d202000077
:10013800d2020000d2020000d2020000d202000067
:10014800d2020000d2020000d2020000d202000057
:10015800d2020000d2020000d2020000d202000047
:10016800d2020000d2020000d2020000d202000037
:10017800d2020000d2020000d2020000d202000027
:10018800d2020000d2020000d2020000d202000017
:10019800d2020000d2020000d2020000d202000007
:1001a800d2020000d2020000d2020000d2020000f7
:1001b800d2020000d2020000d2020000d2020000e7
:1001c800d2020000d2020000d2020000d2020000d7
:1001d800d2020000d2020000d2020000d2020000c7
:1001e800d2020000d2020000d2020000d2020000b7
:1001f800d2020000d2020000d2020000d2020000a7
:10020800d2020000d2020000d2020000d202000096
:10021800d2020000d2020000d2020000d202000086
:10022800d2020000d2020000d2020000d202000076
:10023800d2020000d2020000d2020000d202000066
:10024800d2020000d2020000d2020000d202000056
:10025800d2020000d2020000d2020000d202000046
:10026800d2020000d2020000d2020000d202000036
:0c027800d2020000d2020000d2020000fe
:020000040000fa
:10040000cf1021000eff2c000e018800000000001c
:10041000000020000000e000020032000001200087
:10042000200288000c000700a0c02000010020006e
:100430000f000700000020000000e0000200320072
:100440000000020000000000480902000000000057
:100450000040da000000fe00200020000000e00064
:100460000200320010002000900188000000060009
:10047000a1028800800078000000eb001a0037001d
:10048000e280400054a0b4009101ba00e280400034
:1004900054a0b4009102ba00e280400054a0b4001d
:1004a0000002eb00472bde00f507b200a601880032
:1004b000602ce10008003a000049eb000201e8006e
:1004c000020039003420ec0002f0a0008301e900b2
:1004d000f9ff3e00040037006128e100010032000e
:1004e0000082eb00040007001101ba000200e000e6
:1004f000e3ff3a000000060004d0a300e20f490029
:100500001c003900810278003549ba000201e80078
:10051000020039003420ec0002f0a0008301e90061
:100520000f0032002549ba000201e800020039003c
:100530003420ec0002f0a0008301e9000800320042
:100540000400e0000600320015c9ba000201e8000c
:10055000020039003420ec0002f0a0008301e90021
:100560008180e80054a0b4000300e000e2ff3a00fc
:10057000000006009102ba00055978008301e900e5
:10058000f7ff3200c82ade00055978008301e90030
:10059000f3ff32000400e000f1ff320011d9ba008d
:1005a000eeff37000040da000000fe0021e2a90063
:1005b0000000fa002168a9000080fa002188a90043
:1005c0000168a9000188a9000000060031e2a90025
:1005d0000000fa0023c8a9000080fa0023e8a9005f
:0c05e00003c8a90003e8a9000000060001
:020000040000fa
:1005ec000000fa000042eb0004437800650f210084
:1005fc00864a780014003700640f210014427800fa
:10060c008482fb00240a21000482420014427800f8
:10061c000482fb00241188000000000015118000ea
:10062c000410200004826200e00f5200fbff320035
:10063c00640f2100144278000442e800044378005f
:10064c00650f2100864a7800650f210095427800dd
:10065c0074c4b30084cf5200e7ff36000042eb00b5
:10066c0004437800650f2100864a780007003700a4
:10067c0000000000640f2100144278000442e800de
:10068c0004437800650f2100864a7800650f21002d
:10069c009542780014c3b30084cf5200f4ff3600a7
:1006ac000080fa00000006000600fa00000f780037
:1006bc00110798002207980024eea800c3e8a900af
:1006cc00051020001e824200a411880000000000ca
:1006dc00951180000410200004826200e00f52008b
:1006ec00fbff320014c0b30084427800660f210077
:1006fc00054b78000700370000000000640f210054
:10070c00144278000442e80084427800660f21000d
:10071c00054b7800640f210014427800ee4f520014
:10072c00f5ff36001e029000a411880000000000a6
:10073c00951180000410200004826200e00f52002a
:10074c00fbff320014c0b30084427800660f210016
:10075c00054b78000700370000000000640f2100f3
:10076c00144278000442e80084427800660f2100ad
:10077c00054b7800640f210014427800ee4f5200b4
:10078c00f5ff36002e029000a41188000000000036
:10079c00951180000410200004826200e00f5200ca
:1007ac00fbff320014c0b30084427800660f2100b6
:1007bc00054b78000700370000000000640f210093
:1007cc00144278000442e80084427800660f21004d
:1007dc00054b7800640f210014427800ee4f520054
:1007ec00f5ff3600c3e8a80024eea9000080fa004b
:1007fc00000006000000fa000042eb008442780082
:10080c00720f2100054978002d0037000042eb00e3
:10081c0004417800660f2100024b78001e0037005f
:10082c00740f2100144278000482fb00ec22b90002
:10083c0084027800640f2100144278000482fb00cb
:10084c0004834200740f2100144278008482fb0060
:10085c00640f2100144278000482fb00ec29b900db
:10086c008202780084824200e4012100048242006a
:10087c0094427800240a210004024300054a7800bf
:10088c00640f2100144278000442e800044378000d
:10089c00650f2100864a7800640f2100144278000d
:1008ac00eb4f5200deff3600740f2100144278002b
:1008bc000442e80084427800720f21000549780058
:1008cc00740f210014427800e44f5200cfff360021
:1008dc000042eb0004417800760f2100024b7800b7
:1008ec0018003700740f2100144278000482fb00ba
:1008fc00ec22b90084027800240a21000482420010
:10090c008042eb00054a7800740f210014427800f5
:10091c000482fb00ec22b900eb024200240a210005
:10092c00048242008042eb00054a7800740f2100db
:10093c00144278000442e80004437800750f21004b
:10094c00864a7800740f210014427800e44f52005c
:10095c00e4ff3600f4c6b30084427800220a21007a
:10096c0005497800e4cdb30004417800d60d210090
:10097c00024b78000042eb0004437800650f210025
:10098c00864a780014003700640f21001442780066
:10099c000482fb00c603200004034300640f210003
:1009ac00144278008482fb00640921000482420016
:1009bc0094427800240a210004024300054a78007e
:1009cc00640f2100144278000442e800844278004d
:1009dc00620f210005497800640f21001442780051
:1009ec00e34f5200e8ff36000080fa0000000600da
:1009fc00849fbe00861f78000000fa0014c0b3006c
:100a0c000443780085102100864a78000288a900ea
:100a1c000080fa004f0378004f02be000040060031
:100a2c00849fbe00861f78000000fa000068a900b1
:100a3c0014c0b30004437800250f2100864a7800c7
:100a4c000080fa004f0378004f02be000040060001
:100a5c00849fbe00861f78000000fa000000000092
:100a6c001411800061026200e00f5200fcff3200a2
:100a7c0035118000a40e2100050a78003511800084
:100a8c00a40e21001502980035118000a40e21003f
:100a9c002502980035118000a40e21003502980023
:100aac0014c0b30004437800350f2100864a780047
:100abc002222a9000168a9000080fa004f037800e7
:100acc004f02be0000400600849fbe00861f7800c7
:100adc000000fa0000000000941180006102620026
:100aec00e00f5200fcff3200840121001442780018
:100afc00e14f52000d003a00b411800004808800d0
:100b0c00b411800014808800b41180002480880007
:100b1c00b41180003480880024c0b30004437800f2
:100b2c0085012100864a78002100370084012100cc
:100b3c0014427800e24f52000d003a00b4118000cc
:100b4c0044808800b411800054808800b411800067
:100b5c0064808800b41180007480880034c0b300b5
:100b6c000443780085012100864a78001000370084
:100b7c00b411800084808800b411800094808800b7
:100b8c00b4118000a4808800b4118000b480880067
:100b9c0014c0b3000443780085012100864a780014
:100bac0014c0b30004437800450f2100864a780036
:100bbc003222a90003c8a9000080fa004f03780074
:100bcc004f02be00004006000000fa0040a7a9003a
:100bdc0044042000343a8800243a80000460a100c8
:100bec000470a100243a8800253a800004fe2f00ee
:100bfc0004826200243a880036002000840720001a
:100c0c00a509200037742000844b7800854b7800b0
:100c1c00864b7800143a80001600200064042000f3
:100c2c007505200027742000844b7800854b7800d4
:100c3c00864b780000000000153a80000400270065
:100c4c008482620004002300848f5200faff3a0071
:100c5c0000000000153a80000402200004826200ab
:100c6c00e00f5200fbff32000002eb00240888006a
:100c7c00240880000440a0000450a100240888002f
:100c8c00848b28001408880001eca90001aca90091
:100c9c00018ca900014ca800146080000400a00085
:100cac000410a0000420a00014608800a4392200c5
:100cbc00246088000002eb00f4608800418ca900dd
:100ccc00416ca900414ca900410ca90004628000b0
:100cdc000460a1000470a00004628800406ca900ac
:100cec00404ca900402ca900400ca80043eca800e3
:100cfc0043cca80043aca900438ca900146280002b
:100d0c0004a0a00004b0a00014628800432ca90029
:100d1c00430ca90045eca800450ca90024628000f6
:100d2c000400a0000410a00024628800d41c210040
:100d3c0034628800244821007462880018fe070081
:100d4c00140120004411880021e2a80021a2a9006e
:100d5c002182a9002162a800041180000480a10056
:100d6c000490a1000411880020e2a80020c2a90070
:100d7c0020a2a9002082a9002062a80004118000f2
:100d8c000410a1000420a100041188002002a90075
:100d9c0023c2a9002362a9002342a80022a2a90011
:100dac002222a900141180000460a0000470a0008d
:100dbc001411880002fe070014002000c4118800e2
:100dcc0031e2a80031a2a9003182a9003162a80049
:100ddc00841180000480a1000490a100841188007b
:100dec0030e2a80030c2a90030a2a9003082a900cc
:100dfc003062a800841180000410a0000420a00020
:100e0c00841188003002a90033c2a9003362a90002
:100e1c003342a80032a2a9003222a900941180000a
:100e2c000460a0000470a00094118800c228a900de
:100e3c000002eb00047188000002eb008471880052
:100e4c0010aea80010cea800112ea800118ea9007b
:100e5c0011aea900010ea800108ea90061eea80029
:100e6c000002eb00747388000002eb00f470880041
:100e7c00148ea80024cea80024eea90025368000ec
:100e8c0004f82f00048262008401b3002436880029
:100e9c001534800004fc2f00048262000400a000c2
:100eac00143488003536800004f82f0084826200e8
:100ebc0094022000050272003436880065348000ec
:100ecc0004fc2f00048262003400b30064348800f8
:100edc000535800004f027000502720004358800f7
:100eec000080fa00000006000000fa000042eb004f
:100efc000443780025102100864a780014c0b30002
:100f0c0004437800850f2100864a780054c0b30052
:100f1c0004437800950f2100864a780094c0b300f2
:100f2c0004437800a50f2100864a7800a4c0b300c2
:100f3c0004437800b50f2100864a780054c1b300f1
:100f4c0004437800c50f2100864a780034c0b300f2
:100f5c0004437800d50f2100864a780034c0b300d2
:100f6c0004437800e50f2100864a780034c0b300b2
:100f7c0004437800f50f2100864a7800f4c0b300d2
:100f8c000443780005102100864a7800a4c0b30001
:100f9c000443780015102100864a78000042eb00cb
:100fac0004437800250f2100864a78000042eb00ac
:100fbc0004437800350f2100864a78000042eb008c
:100fcc0004437800450f2100864a7800358ea9002d
:100fdc0035aea900250ea90034aea90034cea90067
:100fec00252ea90014c0b30004437800550f21002e
:100ffc00864a78000042eb000443780085102100fb
:10100c00864a780014c0b30004437800850121009f
:10101c00864a78000042eb0004437800650f2100fb
:10102c00864a78000d003700640f210014427800c6
:10103c008482fb00240a2100048242008042eb00df
:10104c00054a7800640f2100144278000442e8003d
:10105c0004437800650f2100864a7800650f210053
:10106c009542780074c4b30084cf5200eeff360072
:10107c000042eb0004437800650f2100864a78009b
:10108c0010003700640f2100144278000482fb002a
:10109c00650f2100954278008582fb00a60e210089
:1010ac000402420004024300050a7800640f210088
:1010bc00144278000442e80004437800650f2100d4
:1010cc00864a7800640f210014427800e34f5200e6
:1010dc00ecff36000042eb0004437800650f210062
:1010ec00864a78000e003700640f21001442780005
:1010fc000483fb00650f2100954278003410210019
:10110c0004024300054a7800640f21001442780061
:10111c000442e80004437800650f2100864a7800f9
:10112c00640f210014427800e34f5200eeff3600aa
:10113c000042eb0004437800650f2100864a7800da
:10114c0029003700640f2100144278008482fb00d0
:10115c00e4012100048242008042eb00054a780041
:10116c00640f2100144278008482fb00a402210049
:10117c00048242008042eb00054a7800640f210093
:10118c00144278008482fb00640321000482420034
:10119c008042eb00054a7800640f2100144278006d
:1011ac008482fb0024042100048242008042eb0074
:1011bc00054a7800640f2100144278008482fb00f9
:1011cc00e4042100048242008042eb00054a7800ce
:1011dc00640f2100144278000442e80004437800b4
:1011ec00650f2100864a7800640f210014427800b4
:1011fc00eb4f5200d3ff36000002eb0004088800ce
:10120c0005e1a80001eca8002068a80004428000b9
:10121c0004c0a10004d0a10004e0a0000442880096
:10122c000068a9002168a8002442800004c0a10025
:10123c0004d0a00004e0a000244288000168a900aa
:10124c0023c8a800744280000480a0000490a10070
:10125c0004a0a0007442880003c8a9002288a90039
:10126c00544280000400a0000410a0000420a00040
:10127c00544288000288a900c3e8a8000080fa0044
:10128c00000006000000fa004ffe070016ff0700e2
:10129c000100370000000000240f210014427800e8
:1012ac00e04f5200b5003200247180004922de006c
:1012bc006142620004c2ea00614262000482fb00e7
:1012cc00610262004922dd0026718000f5df2f00eb
:1012dc00850263000502720024718800241021002d
:1012ec00144278008482fb006409210004824200cd
:1012fc0015c0b300054a7800540f21001442780041
:10130c00e04f520024003a002410210014427800cf
:10131c008482fb0064092100048242008042eb00bd
:10132c00054a780014c0b30084427800620f210093
:10133c00054978001300370024102100144278006e
:10134c008482fb00640f2100144278000482fb00ad
:10135c00ec2bb9008602780084824200e401210063
:10136c00048242008042eb00054a7800640f2100a1
:10137c00144278000442e80084427800620f210095
:10138c0005497800640f210014427800ea4f52009e
:10139c00e9ff36000b003700540f2100144278008f
:1013ac00e24f520007003a0024102100144278004a
:1013bc008482fb00640921000482420025c0b30032
:1013cc00054a780024102100144278000442e800f9
:1013dc000441780026102100024b780024102100d3
:1013ec0014427800e24f52000600360001fd07005f
:1013fc000042eb000443780025102100864a780057
:10140c0077fc0700340f210014427800e04f5200a3
:10141c003c003200a47180004522de006142620073
:10142c0004c2ea00614262000482fb0061026200b5
:10143c004522dd00a6718000f5fd2f0085026300ba
:10144c0005027200a4718800a40e21009402780099
:10145c0024102100144278000483fb00840f210027
:10146c0004024300144278000482fb00848f520073
:10147c0011003a000042eb0084427800320f210048
:10148c0005497800a40e2100240290000403780082
:10149c00a40e21001402900084027800a40e2100f6
:1014ac0014027800060178008500780004007800aa
:1014bc007dfc070025003700241021001442780021
:1014cc008482fb00d40f2100048242001442780075
:1014dc008482fb0024102100144278000483fb005a
:1014ec00840f210004024300144278000482fb00a4
:1014fc000001eb0085007800040078006afc07000e
:10150c001200370024102100144278008482fb0062
:10151c00d40f210004824200144278008482fb0024
:10152c0024102100144278000483fb00840f210056
:10153c0004024300144278000482fb000001eb001b
:10154c00850078000400780057fc070014c0b30035
:10155c000441780086012100024b78000042eb0028
:10156c0004437800550f2100864a78000042eb00b6
:10157c0084427800220f210005497800440f210095
:10158c0014427800e04f5200920032000580800037
:10159c00f4062000848f52004b003a00b580800086
:1015ac00e40d2000848f520047003a0014c0b300b1
:1015bc0004417800560f2100024b7800a471800082
:1015cc004d22de006142620004c2ea006142620008
:1015dc000482fb00610262004d22dd00a6718000d6
:1015ec00f5ff2d008502630005027200a4718800ce
:1015fc000042eb0004437800650f2100864a780016
:10160c002c00370024102100144278008483fb0046
:10161c00640f2100144278000483fb00640f210046
:10162c00144278000482fb00840242000400210072
:10163c00048242001402780084427800ec3ab9002b
:10164c0006034200e401210004024300054a78002d
:10165c0024102100144278008483fb00640f2100c5
:10166c00144278000483fb00640f210014427800bc
:10167c000482fb0084024200040021000482420028
:10168c001402780084427800ec3ab9000603420058
:10169c00a405210004024300054a7800640f2100d0
:1016ac00144278000442e80084427800620f210062
:1016bc0005497800640f210014427800eb4f52006a
:1016cc00d0ff36002b00370035aea90024c0b30084
:1016dc0004417800560f2100024b78000042eb00c9
:1016ec0004437800650f2100864a78001d003700fe
:1016fc0024102100144278000483fb00640f2100a5
:10170c00144278000482fb002510210095427800d9
:10171c008583fb00650f2100954278008582fb00d4
:10172c00ec39b9008203780085834300a5052100bc
:10173c008582430095427800ec33b90004034300e2
:10174c00e401210004024300054a7800640f2100e3
:10175c00144278000442e80004437800650f21002d
:10176c00864a7800640f210014427800eb4f520037
:10177c00dfff360031e2a9000042eb008442780022
:10178c00620f2100054978000700370000000000b7
:10179c00640f2100144278000442e80004417800f0
:1017ac00660f2100024b7800650f210095427800ee
:1017bc0014c3b30084cf5200f4ff360031e2a8000a
:1017cc003342a8000042eb0004437800450f21008f
:1017dc00864a78008410210014427800e04f5200b1
:1017ec00acfe320084ccb30084427800321021006d
:1017fc000549780024c0b30004417800461021004c
:08180c00024b7800a4fe370036
:020000040000fa
:10181400001000000c010000800000000000000027
:020000040000fa
:02000004000af0
:04afe000ceff0000a0
:020000040000fa
:02000004000af0
:04afe400ffff00006b
:020000040000fa
:02000004000af0
:04afe8007fff0000e7
:020000040000fa
:02000004000af0
:04afec005dff000005
:020000040000fa
:02000004000af0
:04aff00038ff000026
:020000040000fa
:02000004000af0
:04aff400cfff00008b
:00000001FF
