:020000040000fa
:080000000002040000000000f2
:020000040000fa
:10000800d2020000d2020000d2020000d202000098
:10001800d2020000d2020000d2020000d202000088
:10002800d20200009e070000d2020000b2060000c3
:10003800d2020000cc070000d2020000d202000069
:10004800d2020000d2020000d2020000d202000058
:10005800d202000072070000d2020000d2020000a3
:10006800d2020000d2020000d2020000d202000038
:10007800d2020000d2020000d2020000d202000028
:10008800d2020000d2020000d2020000d202000018
:10009800d2020000d2020000f2060000d2020000e4
:1000a800d2020000dc070000d2020000d2020000e9
:1000b800d2020000d2020000d2020000d2020000e8
:1000c800d2020000d2020000d2020000d2020000d8
:1000d800d2020000d2020000d2020000d2020000c8
:1000e800d2020000d2020000d2020000d2020000b8
:1000f800d2020000d2020000d2020000d2020000a8
:10010800d2020000d2020000d2020000d202000097
:10011800d2020000d2020000d2020000d202000087
:10012800d2020000d2020000d2020000d202000077
:10013800d2020000d2020000d2020000d202000067
:10014800d2020000d2020000d2020000d202000057
:10015800d2020000d2020000d2020000d202000047
:10016800d2020000d2020000d2020000d202000037
:10017800d2020000d2020000d2020000d202000027
:10018800d2020000d2020000d2020000d202000017
:10019800d2020000d2020000d2020000d202000007
:1001a800d2020000d2020000d2020000d2020000f7
:1001b800d2020000d2020000d2020000d2020000e7
:1001c800d2020000d2020000d2020000d2020000d7
:1001d800d2020000d2020000d2020000d2020000c7
:1001e800d2020000d2020000d2020000d2020000b7
:1001f800d2020000d2020000d2020000d2020000a7
:10020800d2020000d2020000d2020000d202000096
:10021800d2020000d2020000d2020000d202000086
:10022800d2020000d2020000d2020000d202000076
:10023800d2020000d2020000d2020000d202000066
:10024800d2020000d2020000d2020000d202000056
:10025800d2020000d2020000d2020000d202000046
:10026800d2020000d2020000d2020000d202000036
:0c027800d2020000d2020000d2020000fe
:020000040000fa
:100400008f0621000eff2c000e0188000000000066
:10041000000020000000e000020032000001200087
:10042000200288000c000700601d21000100200050
:100430000f000700000020000000e0000200320072
:100440000000020000000000000d0200000000009b
:100450000040da000000fe00200020000000e00064
:100460000200320010002000900188000000060009
:10047000a1028800800078000000eb001a0037001d
:10048000e280400054a0b4009101ba00e280400034
:1004900054a0b4009102ba00e280400054a0b4001d
:1004a0000002eb00472bde00f507b200a601880032
:1004b000602ce10008003a000049eb000201e8006e
:1004c000020039003420ec0002f0a0008301e900b2
:1004d000f9ff3e00040037006128e100010032000e
:1004e0000082eb00040007001101ba000200e000e6
:1004f000e3ff3a000000060004d0a300e20f490029
:100500001c003900810278003549ba000201e80078
:10051000020039003420ec0002f0a0008301e90061
:100520000f0032002549ba000201e800020039003c
:100530003420ec0002f0a0008301e9000800320042
:100540000400e0000600320015c9ba000201e8000c
:10055000020039003420ec0002f0a0008301e90021
:100560008180e80054a0b4000300e000e2ff3a00fc
:10057000000006009102ba00055978008301e900e5
:10058000f7ff3200c82ade00055978008301e90030
:10059000f3ff32000400e000f1ff320011d9ba008d
:1005a000eeff37000040da000000fe004f0ade00d8
:1005b0008102780001f0a10003f823000118e10096
:1005c00004003c00000028000400a600f0ff270003
:1005d000000006008500780002002000037024005f
:1005e0003c04020000000000c603020000000000fe
:1005f00000000600889fbe008a9fbe008c9fbe0040
:10060000cf8bde004f9bde000204b8000306b8006b
:100610008904460060854e000606b8000a054600bb
:10062000e0854e000606b8008b054600020eb800b5
:10063000890446000a854e00e0854d00030eb8008f
:100640000a0546008b854e00060eb8008b05460055
:10065000023eb8000a0546008b854e00033eb800f6
:100660008b054600023eb8008b0546000b00e000fb
:1006700002003a000af0a300150039000af0a600b3
:1006800020003700e18545000b00e0001d003a0026
:1006900005f0a600080037000480440085004d00e6
:1006a00001f0a600230037004f06be004f05be0034
:1006b0004f04be00000006000480440085004d0089
:1006c0004f06be004f05be004f04be0000000600ee
:1006d00005f0a700f8ff37000480440085004d00b6
:1006e000e0854d000b00e00006003a0001f0a70095
:1006f000040037004f06be004f05be004f04be0089
:10070000000006000bf0a7000a003700f0ff2f00e2
:10071000f1ff27004f06be004f05be004f04be008c
:10072000000006004f06be004f05be004f04be008d
:100730000000060000002000010028004f06be0057
:100740004f05be004f04be000000060021e2a900d4
:100750000000fa002168a9000080fa002188a900a1
:100760000168a9000188a9000000060031e2a90083
:100770000000fa0023c8a9000080fa0023e8a900bd
:1007800003c8a90003e8a900000006000001be009c
:10079000240007000470a70003f0a1006509b10060
:1007a000160032000d0035006828e1000600350013
:1007b000f0ff2f00f1ff27000300e00013003b00d3
:1007c0000100280000000500000040008180480072
:1007d0008502e900fcff3a0008003700f88f42006c
:1007e00002003c008000eb00000005008100d10009
:1007f0000080d3008502e800fcff3a000300e0001f
:1008000002003b0060001000e080180000000600bd
:100810004f89de00820178004b0037006011b8007c
:1008200059003700c70ade00f107b200f50fb20029
:1008300008003200e1cf4200020032000170a00047
:1008400024000500810f700001003200040805003b
:1008500044000500810f700002003a0014000500fa
:100860008502e9000000400081c04800fcff3b0019
:100870000170a00024000500889fbe008a9fbe0072
:100880008c1f7800950007009c00330003866c00e5
:100890006450e100240032006420e10027003200af
:1008a0006150e100220032006120e10021003200ad
:1008b0008b854200eb07b1000134b800003ab80064
:1008c0000804420089844a00013ab8000030b800a8
:1008d0008880400009014a00040033000000400005
:1008e00081804800020149008b05e900c909dd004b
:1008f000830170000100320013002000c814de00e4
:100900004814dd004709de001200b200c808de000e
:10091000088470004b00070001f0a1000cf0a70054
:1009200001f0a0007e0037006120e100800032006d
:100930000801be000200be00f7ff37006150e10071
:10094000fcff3a007a003700881f78000304780023
:100950000300e00007003d0060001000e080180088
:1009600060011900e081190002003b0001f02d0038
:10097000030037000400070008f0a70001f0a00002
:100980004f04780000000600889fbe008a9fbe00ca
:10099000008270000402710004827100260032009f
:1009a0000004be000200be006011b8006b09200008
:1009b000950220000182cf000a0039000541b100f4
:1009c0000082cf00070039000541b1000982cf0045
:1009d000040039000541b1000882cf000100390050
:1009e0000541b10005425200120032000a003b00ee
:1009f00082817100610164008100d1000080d30018
:100a00008984d3000884d3008b05e8000442e80001
:100a1000f7ff3a00070037000804440089844c00bf
:100a200000004800818048008b05e9000442e9008d
:100a3000f9ff3a00030007004f05be004f04be0057
:100a40000000060081002000618055000b003d0081
:100a50000b00200061fe2f000100e1001d003400aa
:100a600082817100610164008904d1000884d3008f
:100a70000000e800faff3a00710020006100640005
:100a800003007000020060000900320061044400ad
:100a9000e0844c000988a500050032008b05e800c1
:100aa0006808e10002003a008904d1000884d300fc
:100ab000f20f20000258e10005003d00c75ddd0097
:100ac000f907b20089807500080078000000060070
:100ad0000bf827008b007800000005000004be0022
:100ae00050ff07000003be000405be000200be0068
:100af0004cff0700844f7500000006000200be0096
:100b00006450e100050036006420e1000200360078
:100b10000968a30001003a000800be000160a000bf
:100b20004f0678004f05be004f04be0000000600cf
:0c0b3000f0ff2f00f1ff2700f9ff370055
:020000040000fa
:100b3c000400fa00008fbe0002002000037824009d
:100b4c001e00be0049ff07000002be000400be00ec
:100b5c000bff07000002be000400be000080fa007c
:100b6c00000006000200fa00000f78001e02780058
:100b7c00a4118800000000009511800004102000d2
:100b8c0004826200e00f5200fbff320014c0b3007d
:100b9c000443780065042100864a7800070037007a
:100bac000000000064042100144278000442e800b4
:100bbc000443780065042100864a7800650421000e
:100bcc009542780034c6b30084cf5200f4ff36004f
:100bdc000080fa00000006000000fa000042eb0062
:100bec000443780065042100864a78001a00370017
:100bfc0064042100144278008482fb00240121004b
:100c0c0004824200144278000482fb002411880004
:100c1c000000000015118000041020000482620006
:100c2c00e00f5200fbff320000000000000000004b
:100c3c0000000000000000000000000000000000a8
:100c4c0064042100144278000442e8000443780054
:100c5c0065042100864a780064042100144278005f
:100c6c00ed4f5200e2ff36000042eb0004437800e7
:100c7c0065042100864a7800070037000000000058
:100c8c0064042100144278000442e8000443780014
:100c9c0065042100864a780064042100144278001f
:100cac00fd4f5200f5ff36000080fa0000000600f0
:100cbc000000fa000042eb000443780065042100b8
:100ccc00864a78000f003700640421001442780033
:100cdc008482fb000400210004824200144278004c
:100cec000482fb00040078009eff070064042100ce
:100cfc00144278000442e8000443780065042100a3
:100d0c00864a78006404210014427800ea4f5200ad
:100d1c00edff36000080fa00000006000400fa0027
:100d2c00100798000042eb00044f780003003700d6
:100d3c0027000900000000001e4fe8001e4278004a
:100d4c008482fb001e029000848f5200f8ff390051
:100d5c000080fa0000000600849fbe00861f780009
:100d6c000000fa000068a900c4828000f40f520051
:100d7c000e003a000002eb00c4828800640e800072
:100d8c001483880014838000e00f520003003d00a0
:100d9c00148380000402ea001483880014c0b3009a
:100dac000443780035042100864a7800c482800010
:100dbc000402e800c482880014c0b3000443780025
:100dcc0005042100864a78000080fa004f03780061
:100ddc004f02be0000400600849fbe00861f7800b4
:100dec000000fa0000000000941180006102620013
:100dfc00e00f5200fcff3200b411800074808800b8
:100e0c0075808000f40f2000848f52000a00360099
:100e1c0014c0b3000443780005012100864a780011
:100e2c00748080000442780004437800150121008e
:100e3c00864a7800040037000042eb000443780037
:100e4c0005012100864a7800040121001442780033
:100e5c00e04f52000c003200150121009542780041
:100e6c00440621001442780084cf520001003a005d
:100e7c0032a2a9000042eb000443780005012100d6
:100e8c00864a78000e0037000401210014427800d5
:100e9c00e04f52000a003a0074808000044278004f
:100eac0004437800c5002100864a780014c0b300c2
:100ebc000443780015042100864a780032a2a80069
:100ecc003222a90003c8a9000080fa004f03780061
:100edc004f02be0000400600849fbe000000fa00d6
:100eec00041880000500200074818800858188002a
:100efc00141880000500200054818800658188004a
:100f0c002418800005002000348188004581880069
:100f1c003418800005002000148188002581880089
:100f2c0001a8a9000080fa004f02be000040060094
:100f3c00849fbe00861f78000000fa0014c0b30026
:100f4c000443780055042100864a78003408800058
:100f5c00d481880002003700240a800004818800b4
:100f6c00040a800068026200e00f5200faff3a00a7
:100f7c000002eb00340888000028a9000080fa0069
:100f8c004f0378004f02be0000400600841f78001b
:100f9c000000fa0034088000e481880000a8a90051
:100fac000080fa004f02780000400600849fbe00cb
:100fbc00861f78000000fa00000000000413800077
:100fcc0061026200e00f5200fcff3200441380000b
:100fdc00f4818800f4818000f5062000850f520012
:100fec0011003200f5062000850f520007003e006c
:100ffc0045062000850f52003c00320055062000ab
:10100c00850f52004a0032005a003700d5142000d8
:10101c00850f52000a003200753e2000850f5200e9
:10102c000400320053003700252ea90034aea8006e
:10103c0055003700252ea80034aea9005200370009
:10104c0034002000348388000042eb000443780015
:10105c0065042100864a78001d003700000000005e
:10106c000413800062026200e00f5200fcff3a00a1
:10107c0064042100144278000482fb0084024200c4
:10108c00e404210004824200140278004413880016
:10109c00000000000413800061026200e00f5200a7
:1010ac00fcff3200441380000442780004437800b3
:1010bc0045052100864a780064042100144278001a
:1010cc000442e8000443780065042100864a780055
:1010dc0064042100144278008482fb003483800075
:1010ec00848f5200ddff390027003700000000001c
:1010fc000413800062026200e00f5200fcff3a0011
:10110c0044052100144278000482fb00441388003b
:10111c00000000000413800061026200e00f520026
:10112c00fcff320044138000d48288001600370084
:10113c00000000000413800062026200e00f520005
:10114c00fcff3a0044052100144278000482fb00a5
:10115c004413880000000000041380006102620048
:10116c00e00f5200fcff320044138000e482880040
:10117c00050037000002eb0044138800252ea80060
:10118c0034aea9000000000034cea9000428a90048
:10119c000080fa004f0378004f02be0000400600aa
:1011ac000000fa0040a7a90044042000343a88004b
:1011bc00243a80000460a1000470a100243a880045
:1011cc00253a800004fe2f0004826200243a880035
:1011dc003600200084072000a50920003774200069
:1011ec00844b7800854b7800864b7800143a80004d
:1011fc00040378000600a00064042000750520009c
:10120c0027742000844b7800854b7800864b78003f
:10121c0000000000153a8000040027008482620060
:10122c0004002300848f5200faff3a0000000000f3
:10123c00153a80000402200004826200e00f520084
:10124c00fbff32000002eb00240888002408800019
:10125c000440a1000450a100240888000068a900e3
:10126c000442800004c0a10004d0a00004e0a0004f
:10127c00044288002068a800848b28001408880089
:10128c000002eb000408880035fd07001401200063
:10129c00c411880023c8a90003c8a90074428000a7
:1012ac000480a1000490a00004a0a0007442880057
:1012bc0031e2a90031a2a9003182a9003162a80053
:1012cc00841180000480a1000490a1008411880086
:1012dc0030e2a80030c2a90030a2a9003082a900d7
:1012ec003062a800841180000410a0000420a0002b
:1012fc00841188003002a90033c2a9003362a9000e
:10130c003342a80032a2a8003222a9009411800016
:10131c000460a1000470a1009411880008fd07006e
:10132c0084002000441188002168a9000168a900ec
:10133c002442800004c0a10004d0a10004e0a0005d
:10134c002442880021e2a80021a2a9002182a90040
:10135c002162a800041180000480a1000490a10067
:10136c000411880020e2a80020c2a90020a2a90034
:10137c002082a9002062a800041180000410a100a2
:10138c000420a100041188002002a90023c2a90096
:10139c002362a9002342a80022a2a9002222a900ac
:1013ac00141180000460a0000470a00014118800c7
:1013bc0021a8a90001a8a900344280000440a00083
:1013cc000450a1000460a000344288003303a9003b
:1013dc0021e3a90021a3a9002143a900041980003d
:1013ec000480a1000490a100041988000419800055
:1013fc000450a1000460a1000470a100041988002d
:10140c002083a8002063a8002043a8002023a90063
:10141c002003a9001419800004d0a10004e0a1004d
:10142c0004f0a100141988002343a90014198000aa
:10143c000480a0000490a0001419880015198000e5
:10144c0034f82f0004826200141988002223a900aa
:10145c002203a90025e3a90025198000f40f2e0012
:10146c008482620004f020000502720024198800b6
:10147c00e4c1b3000443780045322000864a78006a
:10148c003303a9004519800004fc2f00048262007c
:10149c006401b3004419880028e3a9002603a900bd
:1014ac002663a9002683a900341980000410a1002a
:1014bc000420a100341988002028a8000028a900c5
:1014cc00044280000440a1000450a0000460a1006c
:1014dc000442880041a1a900040a800004a0a000d5
:1014ec0004b0a10004c0a100040a8800040a800012
:1014fc000450a1000460a100040a8800040a8000c2
:10150c000400a1000410a1000420a100040a88001a
:10151c004301a90042e1a8000002eb008408880006
:10152c0011e1a900840880000440a0000450a00030
:10153c00840888001061a9001021a90020e8a900e6
:10154c0020a8a90000a8a900144280000440a00013
:10155c000450a0000460a0001442880049a1a90016
:10156c00440a800004a0a00004b0a10004c0a100a3
:10157c00440a8800440a80000450a1000460a100c1
:10158c00440a8800440a80000400a1000410a10051
:10159c000420a100440a88004b01a9004ae1a800dc
:1015ac00000ea800002ea800010ea800100ea80026
:1015bc00102ea800104ea800106ea800108ea900c6
:1015cc0010aea80010cea80010eea900110ea800b5
:1015dc00112ea800118ea80011aea8000002eb007d
:1015ec0004718800202ea800204ea80021aea8006f
:1015fc000002eb0084718800512ea80061eea80057
:10160c00614ea80060cea80060eea8000002eb00be
:10161c00747088000002eb00f47088000002eb008c
:10162c00747188000002eb00747388000e0ea80021
:10163c000e2ea8001e0ea8001e2ea8001e4ea800de
:10164c001e6ea8006f4ea800148ea80024cea80011
:10165c0024eea9002536800004f82f0004826200d5
:10166c008401b300243688001534800004fc2f005c
:10167c00048262000400a000143488003536800017
:10168c0004f82f008482620094022000050272008c
:10169c00343688006534800004fc2f00048262001c
:1016ac003400b300643488006536800004f82f00e1
:1016bc0084826200d4032000050272006436880024
:1016cc0025348000f40f2c008482620004802000fa
:1016dc00050272002434880065368000f40f28005f
:1016ec008482620004802200050272006436880045
:1016fc007535800004f82f0084826200c40220003b
:10170c00050272007435880075358000f40f2800ce
:10171c008482620004102300050272007435880074
:10172c000535800004f0270005027200043588009e
:10173c00e535800004f82f008482620064072000e5
:10174c0005027200e4358800e5358000f40f2800ae
:10175c00848262000470270005027200e435880060
:10176c000428a9002428a900844280000440a00079
:10177c000450a0000460a000844288006382a90089
:10178c006362a9006342a80062a2a9006322a900b7
:10179c006302a90062e2a90062c2a90065e2a90085
:1017ac006402a90001eca900146080000400a100ef
:1017bc000410a1000420a1001460880084b521004d
:1017cc00246088000002eb00446188000002eb00fa
:1017dc00446588000002eb00346188000002eb00d5
:1017ec0034658800d402200054618800d4022000a3
:1017fc0054658800d402200064618800d402200063
:10180c006465880004002c001461880004002c001e
:10181c00146588000002eb00046188000002eb00f4
:10182c000465880034002000246188003400200006
:10183c00246588000477210094618800a4618000ed
:10184c0004c0a10004d0a10004e0a10004f0a10098
:10185c00a4618800a561800004fc2f000482620052
:10186c00a4618800c1e1a900040e80000440a1001d
:10187c000450a1000460a100040e8800c481a900da
:10188c00140e800004b0a10004c0a10004d0a1007b
:10189c00140e88000080fa00000006000000fa0018
:1018ac000042eb000443780005042100864a7800ce
:1018bc000042eb000443780015042100864a7800ae
:1018cc0044c0b3000443780045062100864a7800e2
:1018dc0014c0b3000443780065042100864a7800e4
:1018ec00252ea90034cea90034aea900250ea900de
:1018fc0035aea900358ea9000002eb000408880063
:10190c0005e1a8000002eb003408880011e1a800f2
:10191c00040a80000400a1000410a0000420a1000f
:10192c00040a88002028a8000002eb00d48188005b
:10193c00440a80000400a1000410a0000420a100af
:10194c00440a880020a8a90021a8a80021e3a80027
:10195c0021e2a9002168a90014c0b3000443780057
:10196c0065042100864a78000e00370064042100cb
:10197c00144278000483fb00650421009542780032
:10198c002401210004024300054a7800640421006c
:10199c00144278000442e8000443780065042100f6
:1019ac00864a78006404210014427800ec4f5200ff
:1019bc00eeff3600f4c6b300044378002501210085
:1019cc00864a7800e4cdb30004437800f501210089
:1019dc00864a780061e2a80060c2a9000428a90028
:1019ec002428a80001eca800c1e1a8000080fa009e
:1019fc00000006006001fa00889fbe008a9fbe00ae
:101a0c00e7fd0700a5ff07006000b80048fc0700d1
:101a1c000002be006407980075079800d0cc2c001b
:101a2c00c1ec230042fc07000002be00040f98002a
:101a3c00150f9800c0f5280021ec2b003cfc07008a
:101a4c000002be00240f9800350f98000000200003
:101a5c0001f8230036fc07000002be00440f98007a
:101a6c00550f98006022b800640f9800750f98000d
:101a7c006022b80004179800151798006000b80091
:101a8c002bfc07000002be00048fbe00d0cc2c0043
:101a9c00c1dc230026fc07000002be0024179800be
:101aac003517980040e12a0071dc2b0020fc070060
:101abc000002be0044179800551798000000200043
:101acc0001f823001afc07000002be0064179800fe
:101adc00751798006022b800041f9800151f980015
:101aec006022b800241f9800351f98006000b800d1
:101afc000ffc07000002be00441f9800551f980001
:101b0c00d0cc2c00c1d4230009fc07000002be007d
:101b1c00641f9800751f9800806a2c00b1d42b00ac
:101b2c0003fc07000002be0004279800152798004c
:101b3c000000200001f82300fdfb07000002be009e
:101b4c0024279800352798006022b8004427980075
:101b5c00552798006022b8006427980075279800d4
:101b6c006000b800f2fb07000002be00042f9800d2
:101b7c00152f98000000200001122400ecfb070038
:101b8c000002be00242f9800352f98006022b80068
:101b9c00442f9800552f9800a0702d0031c22300bf
:101bac00e3fb07000002be00642f9800752f98001d
:101bbc00b0702d0031c22300ddfb07000002be0017
:101bcc0004379800153798006022b8004407980035
:101bdc00550798005088280081c82300d4fb0700c3
:101bec000002be002437980035379800a0d82a0090
:101bfc0001d82300cefb07000002be00443798003a
:101c0c005537980000002000813f2400c8fb0700d6
:101c1c000002be0064379800753798000000200061
:101c2c00813f2400c2fb07000002be00043f980065
:101c3c00153f980000002000813f2400bcfb0700ea
:101c4c000002be00243f9800353f9800b0c4250028
:101c5c0071f62300b6fb07000002be00443f98005b
:101c6c00553f9800f0712f00d1f52300b0fb070011
:101c7c000002be00643f9800753f9800d00c29000c
:101c8c0021f62300aafb07000002be00048798007f
:101c9c00158798006022b800248798003587980033
:101cac006022b80044879800558798006022b800dd
:101cbc0064879800758798006022b800048f98009c
:101ccc00158f98006022b800248f9800358f9800eb
:101cdc000000200001f8230095fb07000002be0065
:101cec00448f9800558f98006022b800648f98003c
:101cfc00758f98006022b80004979800159798008b
:101d0c006022b80024979800359798006022b8009c
:101d1c0044979800559798006022b80064979800f3
:101d2c00759798006022b800049f9800159f980042
:101d3c0000002000012724007dfb07000002be00ec
:101d4c00249f9800359f980000002c00a16524006a
:101d5c0077fb07000002be00449f9800559f980037
:101d6c00f026210031a0230071fb07000002be0009
:101d7c00649f9800759f98006022b80004a7980093
:101d8c0015a79800d0ed2700c13b240068fb070085
:101d9c000002be0024a7980035a798006022b80066
:101dac0044a7980055a798006022b80064a7980033
:101dbc0075a798000e0278008411b0000500090088
:101dcc00001aeb0050d02d00e1d5230058fb070082
:101ddc000004be00a01d2e00f1d2230054fb07000e
:101dec000002be0028179900391799004417990072
:101dfc00551799000000200001f823004cfb070048
:101e0c000005be00d0a3200071fb2b0048fb07008f
:101e1c000004be009075210071f0230044fb070004
:101e2c000002be006a1799007b179900081f9900e1
:101e3c00191f9900241f9900351f99008e027800f4
:101e4c000514b00005000900801aeb00c0272f0014
:101e5c0001b3230036fb07000004be0090b92b0031
:101e6c0061b1230032fb07000002be006827990015
:101e7c0079279900042f9900152f99000000200054
:101e8c0001f823002afb07000005be00000020001b
:101e9c0001ff2b0026fb07000004be00e07a2400a3
:101eac0011f6230022fb07000002be002a2f990026
:101ebc003b2f9900482f9900592f9900642f9900b6
:101ecc00752f99006022b80004af980015af9800e8
:101edc006022b80024af980035af98006022b8009b
:101eec0044af980055af9800b0fd2000910c240031
:101efc000ffb07000002be0064af980075af98009e
:101f0c0020a920006100240009fb07000002be008c
:101f1c0004b7980015b79800b0aa2a00a1f22300c4
:101f2c0003fb07000002be0024b7980035b79800e9
:101f3c00b0aa2a00a1ea2300fdfa07000002be00a5
:101f4c0044b7980055b79800100a2a0001f22300f4
:101f5c00f7fa07000002be0064b7980075b7980046
:101f6c00a09a2a0091ea2300f1fa07000002be00b1
:101f7c0004bf980015bf9800b0662700c1b22300bb
:101f8c00ebfa07000002be0024bf980035bf980092
:101f9c000000200001fc230081f9070000027800fa
:101fac00cfa2de0044bf980055bf9800a04b2e0076
:101fbc0011bc2300defa07000002be0064bf9800cb
:101fcc0075bf9800010037000000000004042100d8
:101fdc0014427800e04f5200fbff3200a4718000e5
:101fec004d22de006142620004c2ea0061426200de
:101ffc000482fb00610262004d22dd00a6718000ac
:10200c00f5ff2d008502630005027200a4718800a3
:10201c000042eb008442780006042100054b780056
:10202c003404210014427800e04f520026003200a4
:10203c000042eb008442780036042100054b780006
:10204c0014838000cfa2de000400be00edf907006f
:10205c000002be000400be00b5fa07000003be007b
:10206c006022b8004e319000de3190000600be00b8
:10207c005df907000002be000407990015079900de
:10208c000000200001f82300a9fa07000004be009c
:10209c0014838000cfa2de000400be00d9f9070033
:1020ac000002be000400be00a1fa07000003be003f
:1020bc006022b8000801be000600be004af9070005
:1020cc000002be00048fbe00e482800005002000e8
:1020dc000400be00cef907000002be00d2cc2c00da
:1020ec00c3dc23000400be00e0f907000002be00c0
:1020fc000400be008efa07000002be0064079800c0
:10210c007507980074818000858180000400be00f2
:10211c00bff907000002be000400be0084fa0700ed
:10212c000002be0024079900350799006022b80010
:10213c006eb99000feb990002e009100be00910087
:10214c0029f907000002be00240799003507990001
:10215c006e039000fe0390002e029100be029100cf
:10216c000402530085825b004407990055079900cf
:10217c006022b8004e019100de0191000e309000fb
:10218c009e30900018f907000003be004e0290002c
:10219c00de0290000602420087824a006407990022
:1021ac00750799006e029100fe0291004407980099
:1021bc00550798006022b8004e019100de01910095
:1021cc006e289000fe28900007f907000003be005f
:1021dc006e029100fe0291000602420087824a00c4
:1021ec0024079800350798003033230031f723007b
:1021fc004ffa07000003be002e029000be029000b2
:10220c00840f5300858f5b0006003d0030332300a4
:10221c0031f7230046fa07000002be00240798009d
:10222c0035079800d0cc2c00c1d4230040fa07000d
:10223c000003be002e029000be029000840f5300db
:10224c00858f5b0006003400d0cc2c00c1d4230059
:10225c0037fa07000002be002407980035079800e3
:10226c0000002c00a15d240031fa07000003be0021
:10227c006022b8000601be002e009000be00900047
:10228c00d9f807000002be00441f9800551f9800a3
:10229c004e1a9000de1a900040aade00cfa2de009b
:1022ac0004027800f4828800a571800004022000ea
:1022bc0004826200e00f520008003a000002eb00ba
:1022cc00346188000002eb00346588006022b8009d
:1022dc00440798005507980012003700f5828000db
:1022ec00a49f2100848f520002003600a49f21007d
:1022fc00f482880005838000a49f2100848f520003
:10230c0002003600a49f210004838800f482800020
:10231c0034618800e58280006404200084aab9003e
:10232c00346588003e029100ea23b9002e02910028
:10233c00e022b90004034300ae029100a400200087
:10234c00042ab800050343008602780040aade0088
:10235c00cfa2de0004027800748288001e02be0048
:10236c0040aade00cfa2de0004027800848288003e
:10237c002400200094828800640421001442780018
:10238c000442e8000443780065042100864a780082
:10239c00b48280000402e800b48288000bff37008e
:020000040000fa
:1023ac0000100000660000008000000066100000b5
:1023bc00020000008200000003000000000000008a
:020000040000fa
:02000004000af0
:04afe000ceff0000a0
:020000040000fa
:02000004000af0
:04afe400ffff00006b
:020000040000fa
:02000004000af0
:04afe8007fff0000e7
:020000040000fa
:02000004000af0
:04afec005dff000005
:020000040000fa
:02000004000af0
:04aff00038ff000026
:020000040000fa
:02000004000af0
:04aff400cfff00008b
:00000001FF
