:020000040000fa
:080000000002040000000000f2
:020000040000fa
:10000800d2020000d2020000d2020000d202000098
:10001800d2020000d2020000d2020000d202000088
:10002800d2020000e0150000d2020000d414000043
:10003800d20200000e160000d2020000d202000018
:10004800d2020000d2020000d2020000d202000058
:10005800d202000094150000d2020000d202000073
:10006800d2020000d2020000d2020000d202000038
:10007800d2020000d2020000d2020000d202000028
:10008800d2020000d2020000d2020000d202000018
:10009800d2020000d202000014150000d2020000b3
:1000a800d20200001e160000d2020000d202000098
:1000b800d2020000d2020000d2020000d2020000e8
:1000c800d2020000d2020000d2020000d2020000d8
:1000d800d2020000d2020000d2020000d2020000c8
:1000e800d2020000d2020000d2020000d2020000b8
:1000f800d2020000d2020000d2020000d2020000a8
:10010800d2020000d2020000d2020000d202000097
:10011800d2020000d2020000d2020000d202000087
:10012800d2020000d2020000d2020000d202000077
:10013800d2020000d2020000d2020000d202000067
:10014800d2020000d2020000d2020000d202000057
:10015800d2020000d2020000d2020000d202000047
:10016800d2020000d2020000d2020000d202000037
:10017800d2020000d2020000d2020000d202000027
:10018800d2020000d2020000d2020000d202000017
:10019800d2020000d2020000d2020000d202000007
:1001a800d2020000d2020000d2020000d2020000f7
:1001b800d2020000d2020000d2020000d2020000e7
:1001c800d2020000d2020000d2020000d2020000d7
:1001d800d2020000d2020000d2020000d2020000c7
:1001e800d2020000d2020000d2020000d2020000b7
:1001f800d2020000d2020000d2020000d2020000a7
:10020800d2020000d2020000d2020000d202000096
:10021800d2020000d2020000d2020000d202000086
:10022800d2020000d2020000d2020000d202000076
:10023800d2020000d2020000d2020000d202000066
:10024800d2020000d2020000d2020000d202000056
:10025800d2020000d2020000d2020000d202000046
:10026800d2020000d2020000d2020000d202000036
:0c027800d2020000d2020000d2020000fe
:020000040000fa
:10040000af0721000eff2c000e0188000000000045
:10041000000020000000e000020032000001200087
:10042000200288000c000700206b22000100200041
:100430000f000700000020000000e0000200320072
:100440000000020000000000901b020000000000fd
:100450000040da000000fe00200020000000e00064
:100460000200320010002000900188000000060009
:10047000a1028800800078000000eb001a0037001d
:10048000e280400054a0b4009101ba00e280400034
:1004900054a0b4009102ba00e280400054a0b4001d
:1004a0000002eb00472bde00f507b200a601880032
:1004b000602ce10008003a000049eb000201e8006e
:1004c000020039003420ec0002f0a0008301e900b2
:1004d000f9ff3e00040037006128e100010032000e
:1004e0000082eb00040007001101ba000200e000e6
:1004f000e3ff3a000000060004d0a300e20f490029
:100500001c003900810278003549ba000201e80078
:10051000020039003420ec0002f0a0008301e90061
:100520000f0032002549ba000201e800020039003c
:100530003420ec0002f0a0008301e9000800320042
:100540000400e0000600320015c9ba000201e8000c
:10055000020039003420ec0002f0a0008301e90021
:100560008180e80054a0b4000300e000e2ff3a00fc
:10057000000006009102ba00055978008301e900e5
:10058000f7ff3200c82ade00055978008301e90030
:10059000f3ff32000400e000f1ff320011d9ba008d
:1005a000eeff37000040da000000fe000600070002
:1005b000070008000800090009000a000a000b00f3
:1005c0000b000c00fc000d000d000e000f000f00d2
:1005d00010001000110001000200020003000300df
:1005e00004000400050005000600060007000700df
:1005f00008000800090009000a000a000b000b00af
:100600000c000c000d000d00fd000e000f0010008e
:10061000100011001100120001000200020003008e
:1006200003000400040005000500060006000700a2
:10063000070008000800090009000a000a000b0072
:100640000b000c000c000d000d000e00fd00fe0064
:100650000f00100011001100120012001300020020
:100660000300030004000400050005000600060066
:100670000700070008000800090009000a000a0036
:100680000b000b000c000c000d000d000e000e0006
:100690000f000f00fd00fd00fe001200120013000d
:1006a0001300140014000200020003000300040001
:1006b000040005000500060006000700070008000a
:1006c0000800090009000a000a000b000b000c00da
:1006d0000c000d000d000e000e000f000f00fe00bc
:1006e000fe00ff00ff0012001300130014001400ae
:1006f00003000300040004000500050006000600d6
:100700000700070008000800090009000a000a00a5
:100710000b000b000c000c000d000d000e000e0075
:100720000f000f001000100011001100fe00fe006d
:10073000ff00ff000000150015001600160017004e
:100740000300040004000500050006000600070081
:10075000070008000800090009000a000a000b0051
:100760000b000c000c000d000d000e000e000f0021
:100770000f00100010001100110012001200fe0006
:10078000fe00ff00ff000000010016001700170028
:100790001800030004000400050005000600060020
:1007a0000700070008000800090009000a000a0005
:1007b0000b000b000c000c000d000d000e000e00d5
:1007c0000f000f00100010001100110012001200a5
:1007d00013001300fe00fe00ff00ff0000000000f9
:1007e000010002001800190019001a000400050099
:1007f00005000600060007000700080008000900c1
:1008000009000a000a000b000b000c000c000d0090
:100810000d000e000e000f000f0010001000110060
:100820001100120012001300130014001400150030
:100830001500fe00fe00ff00ff00000000000100a8
:1008400002001a001b001b001c000400050005002c
:10085000060006000700070008000800090009005c
:100860000a000a000b000b000c000c000d000d002c
:100870000e000e000f000f001000100011001100fc
:1008800012001200130013001400140015001500cc
:1008900016001600fe00fe00ff00ff000000000032
:1008a000010002000200030003001d001d000500fe
:1008b0000500060006000700070008000800090000
:1008c00009000a000a000b000b000c000c000d00d0
:1008d0000d000e000e000f000f00100010001100a0
:1008e0001100120012001300130014001400150070
:1008f0001500160016001700170018001800190040
:100900001900ff00ff0000000000010001000200cc
:10091000030003000400040005002000210006007d
:100920000700070008000800090009000a000a0083
:100930000b000b000c000c000d000d000e000e0053
:100940000f000f0010001000110011001200120023
:1009500013001300140014001500150016001600f3
:100960001700170018001800190019001a001a00c3
:100970001b001b001c001c00ff00ff00000000000b
:100980000100010002000200030004000400050051
:1009900005000600060025002500080008000900e3
:1009a00009000a000a000b000b000c000c000d00ef
:1009b0000d000e000e000f000f00100010001100bf
:1009c000110012001200130013001400140015008f
:1009d000150016001600170017001800180019005f
:1009e00019001a001a001b001b001c001c001d002f
:1009f0001d001e001e001f001f00200020002100ff
:100a000021000000000001000100020002000300bc
:100a100003000400040005000600060007000700ac
:100a2000080008002b0009000a000a000b000b0058
:100a30000c000c000d000d000e000e000f000f004a
:100a4000100010001100110012001200130013001a
:100a500014001400150015001600160017001700ea
:100a600018001800190019001a001a001b001b00ba
:100a70001c001c001d001d001e001e001f001f008a
:100a8000200020002100210022002200230023005a
:100a9000240024002500250026002600270027002a
:100aa0002800ff0000000000010001000200020019
:100ab0000300030004000400050005000600070011
:100ac000070008000800090009000a000a000b00de
:100ad000340000000000e00006003a000200280098
:100ae0000208e10003003a0020de2600e1ff2f00ab
:100af000000006001600200001f0a30004003900e9
:100b0000f6ff2f0001b2b9000030b90081004200a9
:100b10006108e10005003a006300e10003003e00c7
:100b2000f1902c000688b80000000600889fbe00e7
:100b30008a9fbe008c9fbe00811f780086057800ca
:100b40008b1f78006108e1009a013900f4ff27004b
:100b50000408e1000d003a00f4ff2f000400e1005a
:100b60000a003a00e02129006132b9000030b900e2
:100b700081004200cf0578004f0178004f06be008b
:100b80004f05be004f04be00000006008181cf006b
:100b90000300e00004003a001118e7000301200000
:100ba0000081cf0083014100e28151007018e10013
:100bb00005003c00708111000202de008308dd00a8
:100bc0008480700003003700708151008200dd00d6
:100bd0000400280004002800810252006118e1008e
:100be00080003400889fbe008a9fbe008c9fbe009c
:100bf0000000220006002800050343000625b80077
:100c00004f55de00c15ddd000b027500052db800fb
:100c100000054500e0854d004e55de00c25ddd005b
:100c20008b027500e08342000725b8006126b900f9
:100c30008c8545000b027800052db800e185450044
:100c4000c1dade000000240006002800850343000e
:100c50000725b8004230de0000054500e0854d0064
:100c60004f55de00c15ddd000b027500052db8009b
:100c700000e0230000054500e0854d004f55de00f3
:100c8000c15ddd008b027500850343000725b800b8
:100c90004f52de00415cdd00080272004f5cde0056
:100ca00000002400052db80000054500e0854d003a
:100cb0004f55de00c15ddd008b02750085034300ea
:100cc000043db80008beb9008c8545004f52de00d7
:100cd000415cdd00080272004f5cde00052db800ab
:100ce00000054500e0854d004f55de00c15ddd008b
:100cf0008b02750085034300043db80008beb900af
:100d00008c8545004f52de00415cdd000802720018
:100d10004f5cde00052db80000054500e0854d0064
:100d20004f55de00c15ddd008b0275008503430079
:100d3000043db80008beb9008c8545004f52de0066
:100d4000415cdd0008027200cf5ade001200200074
:100d50007018e10004003c00f08011008110de00fa
:100d60000310dd0003003700f08051008110dd002a
:100d70000000eb004f89de00820178004fabde00ff
:100d8000860378000404b8000506b800890446000c
:100d900060854e000606b8000a054600040eb8003d
:100da000890446000a854e00050eb8000a05460073
:100db0000416b8000a0546008b0546004e40de00ca
:100dc000424add0004007000ce48de004252dd00e1
:100dd000848070004f06be004f05be004f04be0069
:100de000f40037000300e00079003400889fbe0063
:100df0008a9fbe008c9fbe000000220006002800d3
:100e0000850343000725b8004f55de00c15ddd00b6
:100e10000b027500052db80000054500e0854d006a
:100e20004e55de00c25ddd008b027500e08342009e
:100e30000725b8006126b9008c8545000b027800b3
:100e4000052cb80006044400e0844c00c1cade0052
:100e50004100dd0006002800850343000725b80097
:100e60004f55de00c15ddd000b027500052db80099
:100e700000054500e0854d004f55de00c15ddd00f9
:100e80008b027500850343000725b8004f55de002f
:100e9000c15ddd000b027500052db80000054500a1
:100ea000e0854d004f55de00c15ddd008b02750011
:100eb000850343000725b8004f52de00415cdd008a
:100ec000080272004f5cde00052db80000054500e9
:100ed000e0854d004f55de00c15ddd008b027500e1
:100ee00085034300043db80008beb9008c85450069
:100ef0004f52de00415cdd00080272004f5cde00f4
:100f0000052db80000054500e0854d004f55de0079
:100f1000c15ddd008b02750085034300043db80010
:100f200008beb9008c8545004f52de00415cdd00f3
:100f300008027200cf5ade00120020007018e10093
:100f400004003c00f08011008110de000310dd0081
:100f500003003700f08051008110dd000000eb003d
:100f60004f89de00820178004fabde0086037800f7
:100f70000404b8000506b8008904460060854e00e8
:100f80000606b8000a054600040eb80089044600ab
:100f90000a854e00050eb8000a0546000416b80082
:100fa0000a0546008b0546004e40de00424add0041
:100fb00004007000ce48de004252dd0084807000e4
:100fc0004f06be004f05be004f04be00790037003b
:100fd000889fbe008a9fbe008c9fbe000000240038
:100fe00006002800850343000725b8004f55de00a2
:100ff000c15ddd000b027500052db8000005450040
:10100000e0854d004f55de00c15ddd008b027500af
:10101000850343000725b8004f55de00c15ddd00a4
:101020000b027500052db80000054500e0854d0058
:101030004f55de00c15ddd008b0275008503430066
:101040000725b8004f55de00c15ddd000b027500bd
:10105000052db80000054500e0854d004f55de0028
:10106000c15ddd008b027500850343000725b800d4
:101070004f55de00c15ddd000b027500052db80087
:1010800000054500e0854d004f55de00c15ddd00e7
:101090008b0275000004eb00850343000725b800b0
:1010a0004f52de00415cdd00080272004f5cde0042
:1010b000052db80000054500e0854d004f55de00c8
:1010c000c15ddd008b02750085034300043db8005f
:1010d00008beb9008c8545004f52de00415cdd0042
:1010e000080272004f5cde00052db80000054500c7
:1010f000e0854d004f55de00c15ddd008b027500bf
:1011000085034300043db80008beb9008c85450046
:101110004f52de00415cdd0008027200cf5ade0053
:10112000120020007018e10004003c00f080110063
:101130008110de000310dd0003003700f080510055
:101140008110dd000000eb004f89de008201780095
:101150004fabde00860378000404b8000506b80033
:101160008904460060854e000606b8000a05460060
:10117000040eb800890446000a854e00050eb8002a
:101180000a0546000416b8000a0546008b0546000d
:101190004e40de00424add0004007000ce48de0012
:1011a0004252dd00848070004f06be004f05be0035
:1011b0004f04be004100de00cf08dd000082700059
:1011c00000057800c2c127000220e100b40035000c
:1011d000020028008402510005abb90062034300fd
:1011e00085834b004233de004e39dd00020373007d
:1011f000c2bbde0002002100050022000203430002
:1012000085834b004d33de004339dd00020373005c
:10121000cdbbde00889fbe00cfa0de000624b80054
:101220000722b80089044200060ab80009004200fb
:101230004f04be00f2ff27000200e1000800360064
:10124000cf0578008148260001d8b9004f01780009
:101250004f06be004f05be004f04be000000060052
:101260000000b8004f00de00c108dd000100700082
:101270000100280000805000889fbe008081cf00c0
:10128000e28051000101dd000000280080025100d1
:1012900005027800c12add000600240006a3b9007b
:1012a00005a4b90000002f000981b9000603410020
:1012b0008783490005ccb900008020000981b9006e
:1012c000060341008783490005ccb90000b02f0018
:1012d0000981b900060341008783490005ccb900a4
:1012e000003820000981b9000603410087834900c6
:1012f00005ccb90000d62f000981b90006034100d2
:101300008783490005ccb900002120000981b9007c
:1013100006034100878349004f33de004138dd007a
:1013200000037300cfbbde0000002800060340006e
:10133000e0834b004109de00700011000233de0043
:101340000038dd000003730082bbde000100a30053
:101350000500390024a8250004b0b9004f00de00c4
:10136000c108dd00010370004f04be00cfb3de00f2
:101370000632b8004e22de00c22add00850172006e
:101380000618b800b4aa22000122b80005034300e1
:10139000e0834b000118b800343321000122b8006b
:1013a00005034300e0834b000118b800e4b62000b9
:1013b0000122b80005034300e0834b000118b80088
:1013c000747c20000122b80005034300e0834b0039
:1013d00004912c0006035200e0835b00cf057800e7
:1013e00007dab9000658b900810042004100de006a
:1013f0004f0add0004007000c188de00f4ea270017
:101400000450e10015003d00c4c1270084025500ce
:101410005400f80006102000a6028800652d200068
:1014200004035500868242000500a300030031003a
:101430009541ba008301fb00030037008502e900f3
:1014400095c1ba008301fb005400f90003dbb90029
:101450000000430081804b004602370014f0270053
:101460000450e10007003d0074e927000402550024
:1014700041a2de000ba3b9000000430081804b00b5
:101480003c02370004f027000402550041a2de00b0
:101490000ba3b8000000430081804b0035023700e9
:1014a0004f53dd00c153de000a50b8004e00de008d
:1014b000c208dd00810170000350b800b4aa220008
:1014c000040ab8000403530085835b000308b800d6
:1014d00064662600040ab8004222de004e28dd00c1
:1014e00000027200c2aade000403430085834b00a1
:1014f0000308b80054922400040ab8004222de0017
:101500004e28dd0000027200c2aade000403530070
:1015100085835b00646622000450e1001002340001
:101520000308b800741c2700040ab8004322de0038
:101530004d28dd0000027200c3aade000403430050
:1015400085834b000308b80074d12500040ab80055
:101550004322de004d28dd0000027200c3aade0037
:101560000403530085835b000308b80054ec240097
:10157000040ab8004322de004d28dd00000272009c
:10158000c3aade000403430085834b000308b800b0
:1015900044442400040ab8004322de004d28dd0044
:1015a00000027200c3aade000403530085835b00bf
:1015b000c4cc24000450e100e90134000308b80061
:1015c00084872700040ab8004422de004c28dd008e
:1015d00000027200c4aade000403430085834b00ae
:1015e0000308b800a4bc2600040ab8004422de00a8
:1015f0004c28dd0000027200c4aade000403530080
:1016000085835b000308b80064182600040ab8004c
:101610004422de004c28dd0000027200c4aade0075
:101620000403430085834b00949925000450e10096
:10163000cb0134000308b800b4902500040ab800b8
:101640004422de004c28dd0000027200c4aade0045
:101650000403530085835b000308b800c41e250003
:10166000040ab8004422de004c28dd0000027200ab
:10167000c4aade000403430085834b000308b800be
:10168000a4bd2400040ab8004422de004c28dd007a
:1016900000027200c4aade000403530085835b00cd
:1016a0000308b800f4692400040ab8004422de00ec
:1016b0004c28dd0000027200c4aade0004034300cf
:1016c00085834b000308b80014212400040ab800e5
:1016d0004422de004c28dd0000027200c4aade00b5
:1016e0000403530085835b000308b800f4c127009e
:1016f000040ab8004522de004b28dd00000272001b
:10170000c5aade000403430085834b0064662600ff
:101710000450e100920134000308b800745027001f
:10172000040ab8004522de004b28dd0000027200ea
:10173000c5aade000403530085835b000308b800dc
:1017400044eb2600040ab8004522de004b28dd00e9
:1017500000027200c5aade000403430085834b002b
:101760000308b80074902600040ab8004522de0081
:101770004b28dd0000027200c5aade0004035300fe
:1017800085835b000308b800743e2600040ab80095
:101790004522de004b28dd0000027200c5aade00f3
:1017a0000403430085834b000308b80014f42500ac
:1017b000040ab8004522de004b28dd00000272005a
:1017c000c5aade000403530085835b000308b8004c
:1017d00064b02500040ab8004522de004b28dd0075
:1017e00000027200c5aade000403430085834b009b
:1017f000c4cc26000450e100590134000308b800ad
:1018000064722500040ab8004522de004b28dd0082
:1018100000027200c5aade000403530085835b004a
:101820000308b80084392500040ab8004522de0008
:101830004b28dd0000027200c5aade00040343004d
:1018400085834b000308b80004052500040ab8008e
:101850004522de004b28dd0000027200c5aade0032
:101860000403530085835b000308b80084d424007c
:10187000040ab8004522de004b28dd000002720099
:10188000c5aade000403430085834b000308b800ab
:1018900094a72400040ab8004522de004b28dd008e
:1018a00000027200c5aade000403530085835b00ba
:1018b0000308b800c47d2400040ab8004522de00f5
:1018c0004b28dd0000027200c5aade0004034300bd
:1018d00085834b000308b800c4562400040ab800ee
:1018e0004522de004b28dd0000027200c5aade00a2
:1018f0000403530085835b000308b80064322400ae
:10190000040ab8004522de004b28dd000002720008
:10191000c5aade000403430085834b000308b8001a
:1019200044102400040ab8004522de004b28dd00e4
:1019300000027200c5aade000403530085835b0029
:101940000308b80084e02700040ab8004622de003d
:101950004a28dd0000027200c6aade00040343002c
:1019600085834b00343327000450e100fc00340031
:101970000308b80054a42700040ab8004622de0079
:101980004a28dd0000027200c6aade0004035300ec
:1019900085835b000308b800a46b2700040ab80025
:1019a0004622de004a28dd0000027200c6aade00e0
:1019b0000403430085834b000308b8001436270056
:1019c000040ab8004622de004a28dd000002720048
:1019d000c6aade000403530085835b000308b80039
:1019e00084032700040ab8004622de004a28dd00ee
:1019f00000027200c6aade000403430085834b0088
:101a00000308b800a4d32600040ab8004622de006a
:101a10004a28dd0000027200c6aade00040353005b
:101a200085835b000308b80044a62600040ab800ba
:101a30004622de004a28dd0000027200c6aade004f
:101a40000403430085834b000308b800247b260071
:101a5000040ab8004622de004a28dd0000027200b7
:101a6000c6aade000403530085835b000308b800a8
:101a700034522600040ab8004622de004a28dd005f
:101a800000027200c6aade000403430085834b00f7
:101a90000308b800342b2600040ab8004622de00f2
:101aa0004a28dd0000027200c6aade0004035300cb
:101ab00085835b000308b80004062600040ab8000a
:101ac0004622de004a28dd0000027200c6aade00bf
:101ad0000403430085834b000308b80094e225000b
:101ae000040ab8004622de004a28dd000002720027
:101af000c6aade000403530085835b000308b80018
:101b0000c4c02500040ab8004622de004a28dd00d1
:101b100000027200c6aade000403430085834b0066
:101b20000308b80064a02500040ab8004622de00bd
:101b30004a28dd0000027200c6aade00040353003a
:101b400085835b000308b80064812500040ab8009f
:101b50004622de004a28dd0000027200c6aade002e
:101b60000403430085834b000308b800b4632500d9
:101b7000040ab8004622de004a28dd000002720096
:101b8000c6aade000403530085835b000308b80087
:101b900044472500040ab8004622de004a28dd003a
:101ba00000027200c6aade000403430085834b00d6
:101bb0000308b800f42b2500040ab8004622de0012
:101bc0004a28dd0000027200c6aade0004035300aa
:101bd00085835b000308b800c4112500040ab8001f
:101be0004622de004a28dd0000027200c6aade009e
:101bf0000403430085834b000308b80094f82400d5
:101c0000040ab8004622de004a28dd000002720005
:101c1000c6aade000403530085835b000308b800f6
:101c200054e02400040ab8004622de004a28dd0001
:101c300000027200c6aade000403430085834b0045
:101c40000308b80004c92400040ab8004622de00d4
:101c50004a28dd0000027200c6aade000403530019
:101c600085835b000308b80084b22400040ab8002e
:101c70004622de004a28dd0000027200c6aade000d
:101c80000403430085834b000308b800d49c240060
:101c9000040ab8004622de004a28dd000002720075
:101ca000c6aade000403530085835b000308b80066
:101cb000f4872400040ab8004622de004a28dd002a
:101cc00000027200c6aade000403430085834b00b5
:101cd0000308b800c4732400040ab8004622de00da
:101ce0004a28dd0000027200c6aade000403530089
:101cf00085835b000308b80044602400040ab80030
:101d00004622de004a28dd0000027200c6aade007c
:101d10000403430085834b000308b800744d24007e
:101d2000040ab8004622de004a28dd0000027200e4
:101d3000c6aade000403530085835b000308b800d5
:101d4000443b2400040ab8004622de004a28dd0095
:101d500000027200c6aade000403430085834b0024
:101d6000cf0578004f33de00c13bdd000700730074
:101d70000058b900c108dd004f01de00810071008c
:101d80004100dd004f0678006160e1001100350080
:101d90000b00e0000700350004222900000052007b
:101da000e18018004f06be004f05be004f04be0084
:101db0000000060004de2600e5ff2f0000005200b0
:101dc00081805a004f06be004f05be004f04be0082
:101dd000000006004f06be004f05be004f04be00c7
:101de000000006001600200001f0a30004003900e6
:101df000f2ff2f000192b9000010b90081004200eb
:101e00004f89de00cf89de00e4062300f54521007e
:101e1000861f7800810178000403b8000500b8002f
:101e200087034000608348000418b800870340001f
:101e3000068348000518b80006034000e08148000a
:101e40000410b80006034000838148000510b80064
:101e50008301400083014000860278004f03780030
:101e6000040022008480430060814a00e081490030
:101e7000ce08de004212dd00048070004e11de004c
:101e8000421add00840071000100a7000603ea0089
:101e900000f0a7000603ea0000f0a70060001000b1
:101ea000d11725000100e1002f00310081482600f4
:101eb0000100b8004d00de00c308dd0081007000a5
:101ec000c01b20000008e10003003100f0ff2f00dc
:101ed0000030b900000006000200200013002000be
:101ee0000108b80081037800040028000122b8002e
:101ef00005015100e08159000708b800545525003c
:101f00000122b800c3aade0005014100e0814900ba
:101f10000708b80034d822000122b800c7aade00a2
:101f200005015100e08159000708b800040d2000a8
:101f30000122b800c7aade0005014100e081490086
:101f40000708b800240020000122b800c7aade005c
:101f500005015100e081590003b2b9000230b90017
:101f600081004200000006000100280000805000af
:101f7000814826000100b8004d00de00c308dd00e6
:101f800081007000810378000109b8000308b800df
:101f900050552500000ab800c1aade008583530011
:101fa0000308b80040442400000ab800c5aade00b7
:101fb000858343000308b80000682000000ab800c9
:101fc000c7aade00858353000730b9000000060071
:101fd000889fbe008a9fbe008c9fbe00cf8bde0014
:101fe0004f9bde000204b8000306b80089044600d7
:101ff00060854e000606b8000a054600e0854e00e2
:102000000606b8008b054600020eb800890446009b
:102010000a854e00e0854d00030eb8000a05460013
:102020008b854e00060eb8008b054600023eb800b8
:102030000a0546008b854e00033eb8008b0546001e
:10204000023eb8008b0546000b00e00002003a009b
:102050000af0a300150039000af0a600200037009e
:10206000e18545000b00e0001d003a0005f0a600e8
:10207000080037000480440085004d0001f0a600f0
:10208000230037004f06be004f05be004f04be00c0
:10209000000006000480440085004d004f06be008d
:1020a0004f05be004f04be000000060005f0a7006b
:1020b000f8ff37000480440085004d00e0854d00a6
:1020c0000b00e00006003a0001f0a7000400370012
:1020d0004f06be004f05be004f04be0000000600c4
:1020e0000bf0a7000a003700f0ff2f00f1ff2700d8
:1020f0004f06be004f05be004f04be0000000600a4
:102100004f06be004f05be004f04be000000060093
:1021100000002000010028004f06be004f05be0051
:102120004f04be00000006001600200001f0a300ce
:1021300004003900f6ff2f0001b2b9000030b900e9
:1021400081004200861f78004f89de00cf89de00c3
:10215000e4062300f5452100810178000403b8005e
:102160000500b80087034000608348000418b800e9
:1021700087034000068348000518b80006034000a6
:10218000e08148000410b800060340008381480045
:102190000510b800830140008301400086027800ea
:1021a0004f037800040022008480430060814a00cd
:1021b000e0814900ce08de004212dd00048070009c
:1021c0004e11de00421add00840071000100a700fc
:1021d0000603ea0000f0a70060001000d1172500f8
:1021e0000100e10018003100814826000100b8001c
:1021f0004d00de00c308dd0081007000810378001f
:102200000109b8000308b80050552500000ab800bd
:10221000c1aade00858353000308b80040442400af
:10222000000ab800c5aade00858343000308b80091
:1022300000682000000ab800c7aade0085835300aa
:102240000730b9000000060001002800008050009f
:10225000814826000100b8004d00de00c308dd0003
:1022600081007000c01b20000008e1000300310065
:10227000f0ff2f000030b90000000600020020002f
:10228000130020000108b800810378000400280032
:102290000122b80005015100e08159000708b8008b
:1022a000545525000122b800c3aade0005014100f3
:1022b000e08149000708b80034d822000122b800a4
:1022c000c7aade0005015100e08159000708b800e7
:1022d000040d20000122b800c7aade00050141005c
:1022e000e08149000708b800240020000122b8005e
:1022f000c7aade0005015100e081590003b2b90010
:102300000230b9008100420000000600839f68008f
:102310000100e00002003d0060001000e0801800b5
:102320000300e00002003d0060011100e08119009f
:10233000050007004f00e00002003b0060001000b5
:10234000e080180000000600610ab80080007800f4
:102350000000eb00060220000000d0008180d200c7
:102360000482d2008582d2000000a0000202520046
:1023700083825a0003003b000202420083824a002b
:102380000000a1000603e900f3ff3a000000060088
:1023900021e2a9000000fa002168a9000080fa00eb
:1023a0002188a9000168a9000188a9000000060091
:1023b00031e2a9000000fa0023c8a9000080fa0059
:1023c00023e8a90003c8a90003e8a900000006004b
:1023d0000001be00240007000470a70003f0a10064
:1023e0006509b100160032000d0035006828e100d3
:1023f00006003500f0ff2f00f1ff27000300e0008a
:1024000013003b0001002800000005000000400010
:10241000818048008502e900fcff3a00080037008f
:10242000f88f420002003c008000eb000000050035
:102430008100d1000080d3008502e800fcff3a0053
:102440000300e00002003b0060001000e080180084
:10245000000006004f89de00820178004b00370043
:102460006011b80059003700c70ade00f107b2005a
:10247000f50fb20008003200e1cf42000200320046
:102480000170a00024000500810f700001003200df
:102490000408050044000500810f700002003a00a6
:1024a000140005008502e9000000400081c04800da
:1024b000fcff3b000170a00024000500889fbe00c7
:1024c0008a9fbe008c1f7800950007009c00330097
:1024d00003866c006450e100240032006420e100b7
:1024e000270032006150e100220032006120e1004b
:1024f000210032008b854200eb07b1000134b800a7
:10250000003ab8000804420089844a00013ab80041
:102510000030b8008880400009014a000400330000
:102520000000400081804800020149008b05e9005d
:10253000c909dd0083017000010032001300200092
:10254000c814de004814dd004709de001200b200a6
:10255000c808de00088470004b00070001f0a100ed
:102560000cf0a70001f0a0007e0037006120e10020
:10257000800032000801be000200be00f7ff3700f5
:102580006150e100fcff3a007a003700881f7800b4
:10259000030478000300e00007003d006000100025
:1025a000e080180060011900e081190002003b0082
:1025b00001f02d00030037000400070008f0a70019
:1025c00001f0a0004f04780000000600889fbe00c4
:1025d0008a9fbe00008270000402710004827100b4
:1025e000260032000004be000200be006011b800e8
:1025f0006b092000950220000182cf000a003900fb
:102600000541b1000082cf00070039000541b1004b
:102610000982cf00040039000541b1000882cf00d3
:10262000010039000541b10005425200120032009c
:102630000a003b0082817100610164008100d100c9
:102640000080d3008984d3000884d3008b05e80080
:102650000442e800f7ff3a0007003700080444008e
:1026600089844c0000004800818048008b05e90007
:102670000442e900f9ff3a00030007004f05be00dd
:102680004f04be000000060081002000618055005c
:102690000b003d000b00200061fe2f000100e10057
:1026a0001d00340082817100610164008904d10041
:1026b0000884d3000000e800faff3a00710020000f
:1026c0006100640003007000020060000900320035
:1026d00061044400e0844c000988a5000500320034
:1026e0008b05e8006808e10002003a008904d10087
:1026f0000884d300f20f20000258e10005003d00dd
:10270000c75ddd00f907b200898075000800780018
:10271000000006000bf827008b0078000000050081
:102720000004be0050ff07000003be000405be0009
:102730000200be004cff0700844f75000000060039
:102740000200be006450e100050036006420e10094
:10275000020036000968a30001003a000800be002c
:102760000160a0004f0678004f05be004f04be0078
:1027700000000600f0ff2f00f1ff2700f9ff3700ef
:020000040000fa
:102780000400fa00008fbe0002002000037824003d
:102790001e00be0049ff07000002be000400be008c
:1027a0000bff07000002be000400be000080fa001c
:1027b000000006000200fa00000f78001e027800f8
:1027c000a411880000000000951180000410200072
:1027d00004826200e00f5200fbff320014c0b3001d
:1027e0000443780045052100864a78000700370039
:1027f0000000000044052100144278000442e80073
:102800000443780045052100864a780045052100eb
:102810009542780034c6b30084cf5200f4ff3600ee
:102820000080fa00000006000000fa000042eb0001
:102830000443780045052100864a78001a003700d5
:1028400044052100144278008482fb002401210009
:1028500004824200144278000482fb0024118800a4
:1028600000000000151180000410200004826200a6
:10287000e00f5200fbff32000000000000000000eb
:102880000000000000000000000000000000000048
:1028900044052100144278000442e8000443780013
:1028a00045052100864a780044052100144278003d
:1028b000ed4f5200e2ff36000042eb000443780087
:1028c00045052100864a7800070037000000000017
:1028d00044052100144278000442e80004437800d3
:1028e00045052100864a78004405210014427800fd
:1028f000fd4f5200f5ff36000080fa000000060090
:102900000000fa000042eb00044378004505210076
:10291000864a78000f0037004405210014427800f1
:102920008482fb00040021000482420014427800eb
:102930000482fb00040078009eff0700440521008c
:10294000144278000442e800044378004505210061
:10295000864a78004405210014427800ea4f52006c
:10296000edff36000080fa00000006000400fa00c7
:10297000100798000042eb00044f78000300370076
:1029800027000900000000001e4fe8001e427800ea
:102990008482fb001e029000848f5200f8ff3900f1
:1029a0000080fa0000000600849fbe00861f7800a9
:1029b0000000fa000068a90034838000f40f520080
:1029c0000e003a000002eb0034838800640e8000a1
:1029d0009483880094838000e00f520003003d0040
:1029e000948380000402ea009483880014c0b3003a
:1029f0000443780015052100864a7800348380005e
:102a00000402e8003483880014c0b3000443780053
:102a1000e5042100864a78000080fa004f03780020
:102a20004f02be0000400600849fbe00861f780053
:102a30000000fa00000000009411800061026200b2
:102a4000e00f5200fcff3200b41180007480880057
:102a500075808000f40f2000848f52000a00360039
:102a600014c0b3000443780005012100864a7800b1
:102a7000748080000442780004437800150121002e
:102a8000864a7800040037000042eb0004437800d7
:102a900005012100864a78000401210014427800d3
:102aa000e04f52000c0032001501210095427800e1
:102ab000640721001442780084cf520001003a00dc
:102ac00032a2a9000042eb00044378000501210076
:102ad000864a78000e003700040121001442780075
:102ae000e04f52000a003a007480800004427800ef
:102af00004437800c5002100864a780014c0b30062
:102b000004437800f5042100864a780032a2a80028
:102b10003222a90003c8a9000080fa004f03780000
:102b20004f02be0000400600849fbe000000fa0075
:102b300004188000050020008481880095818800a9
:102b400014188000050020006481880075818800c9
:102b500024188000050020004481880055818800e9
:102b60003418800005002000248188003581880009
:102b70004418800005002000a4818800b5818800e9
:102b800054188000050020002482880035828800c7
:102b900064188000050020000482880015828800e7
:102ba0007418800005002000e4818800f581880009
:102bb00001a8a9000080fa004f02be0000400600f4
:102bc000849fbe00861f78000000fa0014c0b30086
:102bd0000443780035052100864a780034088000d7
:102be0004482880002003700240a800004818800a3
:102bf000040a800068026200e00f5200faff3a0007
:102c00000002eb00340888000028a9000080fa00c8
:102c10004f0378004f02be0000400600841f78007a
:102c20000000fa00340880005482880000a8a9003f
:102c30000080fa004f02780000400600849fbe002a
:102c4000861f78000000fa000000000004138000d6
:102c500061026200e00f5200fcff3200441380006a
:102c6000648288006482800065062000850f52001f
:102c70006600320065062000850f520007003e0006
:102c800045062000850f52003e0032005506200008
:102c9000850f52004c0032006d003700d514200023
:102ca000850f52000c003200753e2000850f520047
:102cb00006003200f5062000850f520064003a003d
:102cc000252ea90034aea80066003700252ea800e6
:102cd00034aea9006300370034002000c4838800ac
:102ce0000042eb000443780045052100864a780045
:102cf0001d00370000000000041380006202620023
:102d0000e00f5200fcff3a00440521001442780015
:102d10000482fb0084024200c405210004824200b8
:102d2000140278004413880000000000041380009f
:102d300061026200e00f5200fcff32004413800089
:102d4000044278000443780025062100864a780072
:102d500044052100144278000442e800044378004e
:102d600045052100864a7800440521001442780078
:102d70008482fb00c4838000848f5200ddff390011
:102d80003800370000000000041380006202620077
:102d9000e00f5200fcff3a002406210014427800a4
:102da0000482fb004413880000000000041380002c
:102db00061026200e00f5200fcff32004413800009
:102dc00044838800270037000000000004138000bf
:102dd00062026200e00f5200fcff3a00240621006c
:102de000144278000482fb004413880000000000b5
:102df0000413800061026200e00f5200fcff320009
:102e0000441380005483880016003700000000003f
:102e10000413800062026200e00f5200fcff3a00df
:102e200024062100144278000482fb004413880029
:102e3000000000000413800061026200e00f5200f5
:102e4000fcff3200441380006483880005003700d3
:102e50000002eb0044138800252ea80034aea90020
:102e60000000000034cea9000428a9000080fa0068
:102e70004f0378004f02be00004006000000fa0039
:102e800040a7a90044042000343a8800243a800076
:102e90000460a1000470a100243a8800253a800053
:102ea00004fe2f0004826200243a880036002000cd
:102eb00084072000a509200037742000844b780087
:102ec000854b7800864b7800143a80000403780024
:102ed0000600a0006404200075052000277420006f
:102ee000844b7800854b7800864b7800000000000a
:102ef000153a800004002700848262000400230049
:102f0000848f5200faff3a0000000000153a80005a
:102f10000402200004826200e00f5200fbff320036
:102f20000002eb0024088800240880000440a1006f
:102f30000450a100240888000068a9000442800011
:102f400004c0a10004d0a00004e0a0000442880056
:102f50002068a800848b2800140888000002eb0079
:102f6000040888000002eb00f408880010fd070048
:102f700014012000c411880023c8a90003c8a900b7
:102f8000744280000480a1000490a00004a0a0006e
:102f90007442880031e2a90031a2a9003182a9005f
:102fa0003162a800841180000480a1000490a10077
:102fb0008411880030e2a80030c2a90030a2a90024
:102fc0003082a9003062a800841180000410a000a3
:102fd0000420a000841188003002a90033c2a90097
:102fe0003362a9003342a80032a2a8003222a9000d
:102ff000941180000460a1000470a1009411880065
:10300000e3fc070084002000441188002168a90027
:103010000168a9002442800004c0a10004d0a100de
:1030200004e0a0002442880021e2a80021a2a90017
:103030002182a9002162a800041180000480a1005f
:103040000490a1000411880020e2a80020c2a90079
:1030500020a2a9002082a9002062a80004118000fb
:103060000410a1000420a100041188002002a9007e
:1030700023c2a9002362a9002342a80022a2a9001a
:103080002222a900141180000460a0000470a00096
:103090001411880021a8a90001a8a90034428000c9
:1030a0000440a0000450a1000460a0003442880045
:1030b0003303a90021e3a90021a3a9002143a9000a
:1030c000041980000480a1000490a1000419880064
:1030d000041980000450a1000460a1000470a10044
:1030e000041988002083a8002063a8002043a800ba
:1030f0002023a9002003a9001419800004d0a100f6
:1031000004e0a10004f0a100141988002343a900e1
:10311000141980000480a0000490a00014198800f5
:103120001519800034f82f00048262000420a000ea
:10313000141988002223a9002203a80025e3a9006e
:1031400025198000f40f2e008482620004f0200014
:103150000502720024198800e4c1b300044378001a
:1031600045322000864a78003303a90045198000c3
:1031700004fc2f00048262006401b300441988003b
:1031800028e3a9002603a9002663a9002683a90035
:10319000341980000410a1000420a1003419880013
:1031a00045198000f40f2c00848262000450210035
:1031b000050272004419880029e3a9002703a8002a
:1031c0002763a9002783a900341980000490a10077
:1031d00004a0a100341988002028a8000028a90014
:1031e000044280000440a1000450a0000460a1003b
:1031f0000442880041a1a900040a800004a0a000a4
:1032000004b0a10004c0a100040a8800040a8000e0
:103210000450a1000460a100040a8800040a800090
:103220000400a1000410a1000420a100040a8800e9
:103230004301a90042e1a8000002eb0084088800d5
:1032400011e1a900840880000440a0000450a000ff
:10325000840888001061a9001021a90020e8a900b5
:1032600020a8a90000a8a900144280000440a000e2
:103270000450a0000460a0001442880049a1a900e5
:10328000440a800004a0a00004b0a10004c0a10072
:10329000440a8800440a80000450a1000460a10090
:1032a000440a8800440a80000400a1000410a10020
:1032b0000420a100440a88004b01a9004ae1a800ab
:1032c000000ea800002ea800010ea800100ea800f5
:1032d000102ea800104ea800106ea800108ea90095
:1032e00010aea80010cea80010eea900110ea80084
:1032f000112ea800118ea80011aea8000002eb004c
:1033000004718800202ea800204ea80021aea8003d
:103310000002eb0084718800512ea80061eea80025
:10332000614ea80060cea80060eea8000002eb008d
:10333000747088000002eb00f47088000002eb005b
:10334000747188000002eb00747388000e0ea800f0
:103350000e2ea8001e0ea8001e2ea8001e4ea800ad
:103360001e6ea8006f4ea800148ea80024cea800e0
:1033700024eea9002536800004f82f0004826200a4
:103380008401b300243688001534800004fc2f002b
:10339000048262000400a0001434880035368000e6
:1033a00004f82f008482620094022000050272005b
:1033b000343688006534800004fc2f0004826200eb
:1033c0003400b300643488006536800004f82f00b0
:1033d00084826200d40320000502720064368800f3
:1033e00025348000f40f2c008482620004802000c9
:1033f000050272002434880065368000f40f28002e
:103400008482620004802200050272006436880013
:103410007535800004f82f0084826200c402200009
:10342000050272007435880075358000f40f28009d
:103430008482620004102300050272007435880043
:103440000535800004f0270005027200043588006d
:10345000e535800004f82f008482620064072000b4
:1034600005027200e4358800e5358000f40f28007d
:10347000848262000470270005027200e43588002f
:103480000428a9002428a900844280000440a00048
:103490000450a0000460a000844288006382a90058
:1034a0006362a9006342a80062a2a9006322a90086
:1034b0006302a90062e2a90062c2a90065e2a90054
:1034c0006402a90001eca900146080000400a100be
:1034d0000410a1000420a1001460880084b521001c
:1034e000246088000002eb00446188000002eb00c9
:1034f000446588000002eb00346188000002eb00a4
:1035000034658800d402200054618800d402200071
:1035100054658800d402200064618800d402200031
:103520006465880004002c001461880004002c00ed
:10353000146588000002eb00046188000002eb00c3
:1035400004658800340020002461880034002000d5
:10355000246588000477210094618800a4618000bc
:1035600004c0a10004d0a10004e0a10004f0a10067
:10357000a4618800a561800004fc2f000482620021
:10358000a4618800c1e1a900040e80000440a100ec
:103590000450a1000460a100040e8800c481a900a9
:1035a000140e800004b0a10004c0a10004d0a1004a
:1035b000140e88000080fa00000006000000fa00e7
:1035c0000042eb0004437800e5042100864a7800bd
:1035d0000042eb0004437800f5042100864a78009d
:1035e00044c0b3000443780065072100864a780090
:1035f00014c0b3000443780045052100864a7800d2
:10360000252ea90034cea90034aea900250ea900ac
:1036100035aea900358ea9000002eb000408880031
:1036200005e1a8000002eb00a40888001fe1a80043
:103630000002eb003408880011e1a800040a8000b1
:103640000400a1000410a0000420a100040a8800c6
:103650002028a9000002eb0044828800440a800070
:103660000400a1000410a0000420a100440a880066
:1036700020a8a90021a8a80021e3a80021e2a90010
:103680002168a90014c0b300044378004505210057
:10369000864a78000e003700440521001442780065
:1036a0000483fb0045052100954278002401210098
:1036b00004024300054a78004405210014427800c2
:1036c0000442e8000443780045052100864a78005a
:1036d0004405210014427800ec4f5200eeff360002
:1036e000f4c6b3000443780025012100864a78001f
:1036f000e4cdb30004437800f5012100864a780048
:1037000061e2a80060c2a9000428a9002428a8003a
:1037100001eca800c1e1a8000080fa00000006004a
:103720006801fa00889fbe00d4fd0700a3ff0700d0
:103730006000b80012fc07000002be0004279800d9
:10374000152798006000b8000dfc07000002be00bd
:103750002427980035279800d0cc2c00c1dc23000a
:1037600007fc07000002be00442798005527980078
:10377000b0702d0031b2230001fc07000002be0032
:1037800064279800752798006e209000fe20900016
:1037900020079800310798006022b800440798007d
:1037a000550798006022b800042f9800152f980044
:1037b0006000b800f2fb07000002be00242f980052
:1037c000352f9800a0702d0031ba2300ecfb0700c4
:1037d0000002be00442f9800552f980070712b00f6
:1037e00011852300e6fb07000002be00642f98004d
:1037f000752f98006e2a9000fe2a9000040f980002
:10380000150f98006022b800240f9800350f98001b
:103810006000b800dafb07000002be000437980021
:10382000153798006000b800d5fb07000002be0005
:103830002437980035379800d0cc2c00c1e4230001
:10384000cffb07000002be004437980055379800b0
:10385000b0702d0031c22300c9fb07000002be007a
:1038600064379800753798006e309000fe309000f5
:10387000600f9800710f98006022b800041798003c
:10388000151798006022b800241798003517980083
:103890006022b800043f9800153f98006022b800ed
:1038a000243f9800353f98006022b80044179800e4
:1038b0005517980000002000012f2400b0fb0700de
:1038c0000002be00443f9800553f980000002000d1
:1038d00001162400aafb07000002be00643f980006
:1038e000753f98006022b8000487980015879800fb
:1038f000d0ed2700c13b2400a1fb07000002be0061
:1039000024879800358798000000200001f02300ec
:103910009bfb07000002be00448798005587980073
:103920000000200001f0230095fb07000002be000c
:1039300064879800758798006022b800048f98000b
:10394000158f980000002000913f24008cfb070099
:103950000002be00248f9800358f980000002800d8
:10396000813f240086fb07000002be00448f9800c0
:10397000558f980000002800913f240080fb07002d
:103980000002be00648f9800758f9800a0902d00f3
:1039900061f323007afb07000002be000497980041
:1039a0001597980060e6210041f3230074fb07009f
:1039b0000002be002497980035979800e06a2b001b
:1039c00081f323006efb07000002be0044979800bd
:1039d000559798006022b8006497980075979800f2
:1039e0006022b800049f9800159f98006022b800dc
:1039f000249f9800359f98006022b80064179800b3
:103a0000751798006022b800041f9800151f9800d1
:103a10006022b800241f9800351f98006022b8006b
:103a2000441f9800551f9800f02a2400a1cc2300c1
:103a300053fb07000002be00449f9800559f98006a
:103a400030d42a0091f723004dfb07000002be008e
:103a5000649f9800759f98006022b800641f9800ca
:103a6000751f98006022b80004a7980015a7980059
:103a700000002800713f240041fb07000002be0047
:103a800024a7980035a7980000002800713f240063
:103a90003bfb07000002be0044a7980055a7980012
:103aa00060a82a0081c1230035fb07000002be0088
:103ab00064a7980075a7980060a82a0081c1230018
:103ac0002ffb07000002be0004af980015af98005e
:103ad0006022b80024af980035af98006022b8008b
:103ae00044af980055af98006022b80064af9800ca
:103af00075af98006022b80004b7980015b7980019
:103b0000a0d82a0001d823001dfb07000002be0038
:103b100024b7980035b79800a089280081c82300f1
:103b200017fb07000002be0044b7980055b7980085
:103b30005086280081c0230011fb07000002be0050
:103b400064b7980075b79800b0aa2a00a1f22300c4
:103b50000bfb07000002be0004bf980015bf9800d1
:103b6000a0aa2a00a1ea230005fb07000002be006c
:103b700024bf980035bf980020a9200061002400d0
:103b8000fffa07000002be0044bf980055bf98002e
:103b9000b0fd2000910c2400f9fa07000002be00dd
:103ba00064bf980075bf9800b0662700c1b22300bb
:103bb000f3fa07000002be000407990015079900f8
:103bc00060aa200061f02300edfa07000002be00a9
:103bd0002407990035079900010037000000000014
:103be000e404210014427800e04f5200fbff320051
:103bf000a4088000a48388000002eb00a4088800c9
:103c0000a583800034022000110009008482d800be
:103c100000027800050020000400be0010fa070032
:103c20000002be000400be00d5fa07000003be007b
:103c30006022b8004e819000de8190000600be0038
:103c4000e3f807000002be00048f9800158f98006b
:103c50000e8a90009e8a900004b7980015b79800cd
:103c600000002000a1472400c5fa07000002be00a2
:103c70000401be000e8890009e889000a3f9070002
:103c80000002be006487980075879800a4718000c8
:103c90004d22de006142620004c2ea00614262001d
:103ca0000482fb00610262004d22dd00a6718000eb
:103cb000f5ff2d008502630005027200a4718800e3
:103cc0000042eb0004437800e5042100864a7800b6
:103cd00094838000cfa2de000400be00ddf907005f
:103ce0000002be000400be00a5fa07000003be00eb
:103cf0006022b8002eb19000beb190000600be0058
:103d0000b3f807000002be00440799005507990068
:103d10001405210014427800e04f52005200320096
:103d20000042eb0084407800100521000148780033
:103d300044838000050020000400be00c8f907008d
:103d40000002be000400be008dfa07000003be00a2
:103d50004e029100de0291000402530085825b0056
:103d600064079900750799006022b8006e01910000
:103d7000fe0191000e0890009e08900094f8070044
:103d80000003be002e0a9000be0a90000602420008
:103d900087824a00040f9900150f99000e0a9100be
:103da0009e0a9100240f9800350f98006022b800f9
:103db0006e019100fe0191004e289000de289000d7
:103dc00083f807000003be000e0a91009e0a9100ce
:103dd0000602420087824a0064079800750798002f
:103de00000002000010a240065fa07000003be005d
:103df0006e029000fe029000840f5300858f5b00de
:103e000007003d0000002000010a24005cfa0700c2
:103e10000002be0064079800750798001200370082
:103e20006000b80056fa07000003be006e02900062
:103e3000fe029000840f5300858f5b000600340063
:103e40006000b8004efa07000002be006407980048
:103e500075079800040037006e289000fe28900037
:103e6000000f9800110f98006e029000fe02900063
:103e70000427980015279800848180009581800090
:103e80000400be0076f907000002be000400be0078
:103e90003bfa07000004be00000020004129240076
:103ea00037fa07000002be000402540085825c005d
:103eb000240f9900350f99006022b8004eb1900090
:103ec000deb190002e089100be08910040f8070076
:103ed0000002be00240f9900350f99000e239000b8
:103ee0009e2390002e0a9100be0a91000402530006
:103ef00085825b00440f9900550f99006022b8003d
:103f00004e099100de0991002e009000be00900045
:103f10002ff807000003be004e029000de02900062
:103f20000602420087824a00640f9900750f9900cb
:103f30006e089100fe089100400798005107980014
:103f40006022b8004e099100de0991004e209000d9
:103f5000de2090001ef807000003be006e0a9100ec
:103f6000fe0a9100041f430005974b0030332300e5
:103f700031f7230002fa07000002be00be0f520014
:103f8000ae8f5a000b003d003033230031f7230081
:103f9000fbf907000002be00048fbe006000b800fd
:103fa000f7f907000002be002407980035079800c3
:103fb000140037006000b800f1f907000002be00ed
:103fc000be0f5200ae8f5a000a0034006000b800e5
:103fd000ebf907000002be00048fbe006000b800cd
:103fe000e7f907000002be00240798003507980093
:103ff000040037006e229000fe22900024079800f3
:104000003507980000002c00a15d2400dcf90700b2
:104010000003be006022b8000601be001e00be0004
:10402000ebf707000002be00242798003527980010
:104030002e229000be22900040aade00cfa2de0019
:10404000040278007483880000ee2700c133240046
:10405000cbf907000002be004e039100de03910081
:104060000402530085825b0004179900151799001c
:1040700064838000050020000400be00f8f80700fb
:104080000002be000400be00bdf907000002be0031
:1040900024179900351799006022b8000e1191007d
:1040a0009e1191002e109100be109100c8f70700dc
:1040b0000002be0004a7980015a798005483800052
:1040c000050020000400be00e5f807000002be0065
:1040d0000400be00aaf907000003be000ea2900073
:1040e0009ea290000602420087824a00441799006f
:1040f000551799004e139100de1391006e1a90002f
:10410000fe1a90000402530085825b006417990038
:1041100075179900a0702d0031c2230098f907008f
:104120000004be00000020000112240094f90700e2
:104130000003be006022b8000801be000600be00f9
:10414000a3f707000002be00041f9900151f990085
:104150006022b8006e119100fe1191000e189100be
:104160009e1891009af707000002be0024179800dd
:104170003517980000002000010a240080f907008c
:104180000003be002e129000be129000840f530058
:10419000858f5b0007003d0000002000010a24001d
:1041a00077f907000002be00241798003517980021
:1041b0000d0037006000b80071f907000003be0071
:1041c0002e129000be129000840f5300858f5b006a
:1041d000050034006000b80069f907000002be0065
:1041e00024179800351798002e109000be109000ec
:1041f0000037980011379800a4818000b5818000b5
:104200000400be0096f807000002be000400be00d5
:104210005bf907000004be000000200061312400ab
:1042200057f907000002be000402540085825c00ba
:10423000241f9900351f99006022b8006eb19000cc
:10424000feb190002e189100be18910060f7070093
:104250000002be00241f9900351f99000e33900004
:104260009e3390002e1a9100be1a91000402530052
:1042700085825b00441f9900551f99006022b80099
:104280004e199100de1991006e089000fe08900012
:104290004ff707000003be000e1290009e12900020
:1042a0000602420087824a00641f9900751f990028
:1042b0006e1a9100fe1a91000417980015179800c5
:1042c0006022b8004e199100de1991004e30900026
:1042d000de3090003ef707000003be006e1a91002a
:1042e000fe1a91000602420087824a00440f98009d
:1042f000550f98003033230031f7230020f90700d1
:104300000003be004e0a9000de0a9000840f5300a6
:10431000858f5b000c003d003033230031f7230014
:1043200017f907000002be00440f9800550f9800cf
:104330006000b80012f907000002be00640f980088
:10434000750f9800170037006000b8000cf90700df
:104350000003be004e0a9000de0a9000840f530056
:10436000858f5b000b0034006000b80004f9070083
:104370000002be00440f9800550f98006000b8007e
:10438000fff807000002be00640f9800750f980048
:10439000040037006e309000fe309000600f9800ef
:1043a000710f980000002c00a15d2400f4f80700b4
:1043b0000003be006022b8000601be004e08900057
:1043c000de08900002f707000002be0024379800c4
:1043d000353798002e329000be32900040aade00a1
:1043e000cfa2de000402780084838800248180004c
:1043f000358180000400be0019f807000002be00ed
:104400000400be00def807000003be002e8a900004
:10441000be8a90000402530085825b00048f9800de
:10442000158f98006022b8000e9190009e91900028
:104430000e8890009e889000e5f607000002be00fe
:104440000427990015279900448180005581800038
:104450000400be0002f807000002be000400be0017
:10446000c7f807000003be004e8a9000de8a900065
:104470000402530085825b00048f9800158f98001a
:104480006022b8002e919000be9190000e8890009e
:104490009e889000cef607000002be0024279900f7
:1044a0003527990064818000758180000400be007a
:1044b000ebf707000002be000400be00b0f80700e2
:1044c0000003be006e8a9000fe8a90000402530032
:1044d00085825b00048f9800158f98006022b800d9
:1044e0004e919000de9190000e8890009e88900082
:1044f000b7f607000002be00649798007597980011
:104500002e189000be18900007f707000003be00a9
:104510006022b8000601be000e2091009e2091008e
:10452000abf607000004be002e1b9000be1b9000df
:104530004eba9000deba90000402530085825b0000
:104540000400be00f8f607000003be006022b800b9
:104550000601be002e209100be2091009cf60700af
:104560000002be000804420089844a002e1b90000d
:10457000be1b90004eba9000deba900006024200c8
:1045800087824a000400be00e7f607000003be0071
:104590006022b8000601be006e909000fe90900070
:1045a0008bf607000002be000802420089824a0022
:1045b00044279900552799006022b8000eb9900051
:1045c0009eb990004e209100de20910080f60700f9
:1045d0000002be0044279900552799002e1890002c
:1045e000be189000fff507000003be006022b8006f
:1045f0000601be000e2091009e20910074f6070077
:104600000004be002e1b9000be1b90004eba90000e
:10461000deba90000402530085825b000400be00f5
:10462000f0f507000003be006022b8000601be00de
:104630002e209100be20910065f607000002be000a
:104640000804420089844a002e1b9000be1b900083
:104650004eba9000deba90000602420087824a00fd
:104660000400be00dff507000003be006022b800b2
:104670000601be006e909000fe90900054f6070078
:104680000002be000802420089824a0064279900a5
:10469000752799006022b8000eb990009eb990006d
:1046a0006e209100fe20910049f607000002be0036
:1046b00064279900752799006022b8000e019100c7
:1046c0009e0191006e209100fe20910040f60700af
:1046d0000002be00043f9800153f98000e3890007d
:1046e0009e389000fbf007000002be00043f9800d7
:1046f000153f98004e129000de1290006e39900027
:10470000fe3990000e3890009e38900030f6070079
:104710000002be00243f9800353f98002e3a9000da
:10472000be3a900044179800551798002e3a900012
:10473000be3a90004e399000de3990000e3890005d
:104740009e38900022f607000002be000487980001
:10475000158798000e8390009e8390002e82900013
:10476000be8290000602420087824a0004879800b9
:104770001587980000002000a147240000f80700da
:104780000002be000401be000e8090009e809000da
:10479000def607000002be00249f9800359f9800b7
:1047a0000e1a90009e1a90006e819000fe8190007b
:1047b0002e989000be98900005f607000002be00fb
:1047c0006417980075179800080037006e13900062
:1047d000fe1390006eba9000feba900004025300df
:1047e00085825b0064179800751798006e1390001f
:1047f000fe1390006eba9000feba9000840f530032
:10480000858f5b00f1ff3c00080037006e139000bd
:10481000fe1390006eba9000feba900006024200ad
:1048200087824a0064179800751798006e129000ee
:10483000fe129000e00f5200e08f5a00f3ff3500a7
:104840006e109000fe109000001f9800111f98003d
:104850006e129000fe129000241f9800351f9800e1
:104860006022b8004e999000de9990004e20910091
:10487000de209100d6f507000002be00042f99004b
:10488000152f99000e2a91009e2a91006e99900092
:10489000fe9990004e189000de189000ccf50700ad
:1048a0000002be00242f9900352f99002e28910078
:1048b000be289100401f9800511f98002e2a910099
:1048c000be2a9100641f9800751f98006e1a900010
:1048d000fe1a9000e00f5200e08f5a0006003d00e3
:1048e0006e1a9000fe1a900060021200e0821a0018
:1048f000641f9800751f9800e4818000f581800096
:104900000400be00d6f607000002be000400be0090
:104910009bf707000003be002ea29000bea29000ed
:104920000402530085825b00048f9800158f980065
:104930006022b8006ea19000fea190000e88900049
:104940009e889000a2f507000002be00442f990047
:10495000552f990004828000158280000400be005b
:10496000bff607000002be000400be0084f7070087
:104970000003be004ea29000dea29000040253008d
:1049800085825b00048f9800158f98006022b80024
:104990000ea990009ea990000e8890009e8890001d
:1049a0008bf507000002be00642f9900752f990057
:1049b0004e2b9100de2b91006e2a9100fe2a910071
:1049c0000602420087824a0060021200e0821a005a
:1049d00024af980035af98002e189000be189000b4
:1049e000d1f507000003be006022b8000601be003a
:1049f0004e289100de28910075f507000004be00e6
:104a00002e1b9000be1b90004eba9000deba9000a4
:104a10000402530085825b000400be00c2f507005b
:104a20000003be006022b8000601be006e2891009f
:104a3000fe28910066f507000002be00080442004f
:104a400089844a002e1b9000be1b90004eba900035
:104a5000deba90000602420087824a000400be00cf
:104a6000b1f507000003be006022b8000601be00d9
:104a70002ea89000bea8900055f507000002be00c9
:104a80000802420089824a000437990015379900cc
:104a90006022b8000eb990009eb990000e309100cf
:104aa0009e3091004af507000002be0004379900cd
:104ab000153799002e189000be189000c9f4070011
:104ac0000003be006022b8000601be004e2891001f
:104ad000de2891003ef507000004be002e1b90006a
:104ae000be1b90004eba9000deba90000402530044
:104af00085825b000400be00baf407000003be001c
:104b00006022b8000601be006e289100fe289100c8
:104b10002ff507000002be000804420089844a0005
:104b20002e1b9000be1b90004eba9000deba900083
:104b30000602420087824a000400be00a9f4070072
:104b40000003be006022b8000601be002ea890003f
:104b5000bea890001ef507000002be000802420039
:104b600089824a0044af980055af98006022b8008f
:104b70000eb990009eb990004ea89000dea890005b
:104b800013f507000002be0044af980055af98002f
:104b90002e009100be00910092f407000003be00b9
:104ba0006022b8000601be000e3091009e309100d8
:104bb00007f507000004be002e009100be00910022
:104bc00059f507000003be006022b8000601be00d0
:104bd0004ea89000dea89000fdf407000002be0081
:104be0000402540085825c0024379900353799000f
:104bf000a57180000402200004826200e00f5200d0
:104c000014003a000002eb00346188000002eb005f
:104c1000346588006022b800440798005507980062
:104c20006022b800240f9800350f98006022b80069
:104c300004179800151798006022b80044179800d0
:104c4000551798006022b800041f9800151f98009f
:104c500004003700748380003461880084838000fe
:104c6000346588006e1a9000fe1a9000e00f520022
:104c7000e08f5a0006003d006e1a9000fe1a900068
:104c800060021200e0821a00641f9800751f9800ed
:104c90000000200001002400b9f607000003be0058
:104ca0002e329100be3291000602420087824a00f5
:104cb0004606200086abb900e020b90080037800ea
:104cc000070343008402780044062000042ab80049
:104cd000050343008602780040aade00cfa2de0072
:104ce00004027800e48288006e1a9000fe1a900098
:104cf00040aade00cfa2de0004027800f482880021
:104d0000de0291004406200084abb9004e029100ff
:104d1000e022b90004034300ce02910044062000c3
:104d2000042ab800050343008602780040aade008a
:104d3000cfa2de000402780004838800440521002d
:104d4000144278000442e800044178004105210043
:104d500082487800248380000402e80024838800cd
:044d60009ffb37007e
:020000040000fa
:104d640000100000780000008000000078100000af
:104d740002000000820000000300000000000000a8
:020000040000fa
:02000004000af0
:04afe000ceff0000a0
:020000040000fa
:02000004000af0
:04afe400ffff00006b
:020000040000fa
:02000004000af0
:04afe8007fff0000e7
:020000040000fa
:02000004000af0
:04afec005dff000005
:020000040000fa
:02000004000af0
:04aff00038ff000026
:020000040000fa
:02000004000af0
:04aff400cfff00008b
:00000001FF
