:020000040000fa
:080000000002040000000000f2
:020000040000fa
:10000800d2020000d2020000d2020000d202000098
:10001800d2020000d2020000d2020000d202000088
:10002800d20200005a060000d20200007c0500003f
:10003800d202000088060000d2020000d2020000ae
:10004800d2020000d2020000d20200009e06000088
:10005800d202000016060000d2020000d202000000
:10006800d2020000d2020000d2020000d202000038
:10007800d2020000d2020000d2020000d202000028
:10008800d2020000d2020000d2020000d202000018
:10009800d2020000d202000094050000d202000043
:1000a800d202000098060000d2020000d20200002e
:1000b800d2020000d2020000d2020000d2020000e8
:1000c800d2020000d2020000d2020000d2020000d8
:1000d800d2020000d2020000d2020000d2020000c8
:1000e800d2020000d2020000d2020000d2020000b8
:1000f800d2020000d2020000d2020000d2020000a8
:10010800d2020000d2020000d2020000d202000097
:10011800d2020000d2020000d2020000d202000087
:10012800d2020000d2020000d2020000d202000077
:10013800d2020000d2020000d2020000d202000067
:10014800d2020000d2020000d2020000d202000057
:10015800d2020000d2020000d2020000d202000047
:10016800d2020000d2020000d2020000d202000037
:10017800d2020000d2020000d2020000d202000027
:10018800d2020000d2020000d2020000d202000017
:10019800d2020000d2020000d2020000d202000007
:1001a800d2020000d2020000d2020000d2020000f7
:1001b800d2020000d2020000d2020000d2020000e7
:1001c800d2020000d2020000d2020000d2020000d7
:1001d800d2020000d2020000d2020000d2020000c7
:1001e800d2020000d2020000d2020000d2020000b7
:1001f800d2020000d2020000d2020000d2020000a7
:10020800d2020000d2020000d2020000d202000096
:10021800d2020000d2020000d2020000d202000086
:10022800d2020000d2020000d2020000d202000076
:10023800d2020000d2020000d2020000d202000066
:10024800d2020000d2020000d2020000d202000056
:10025800d2020000d2020000d2020000d202000046
:10026800d2020000d2020000d2020000d202000036
:0c027800d2020000d2020000d2020000fe
:020000040000fa
:10040000ef0621000eff2c000e0188000000000006
:10041000000020000000e000020032000001200087
:10042000200288000c000700e0be20000100200030
:100430000f000700000020000000e0000200320072
:100440000000020000000000780a02000000000026
:100450000040da000000fe00200020000000e00064
:100460000200320010002000900188000000060009
:10047000a1028800800078000000eb001a0037001d
:10048000e280400054a0b4009101ba00e280400034
:1004900054a0b4009102ba00e280400054a0b4001d
:1004a0000002eb00472bde00f507b200a601880032
:1004b000602ce10008003a000049eb000201e8006e
:1004c000020039003420ec0002f0a0008301e900b2
:1004d000f9ff3e00040037006128e100010032000e
:1004e0000082eb00040007001101ba000200e000e6
:1004f000e3ff3a000000060004d0a300e20f490029
:100500001c003900810278003549ba000201e80078
:10051000020039003420ec0002f0a0008301e90061
:100520000f0032002549ba000201e800020039003c
:100530003420ec0002f0a0008301e9000800320042
:100540000400e0000600320015c9ba000201e8000c
:10055000020039003420ec0002f0a0008301e90021
:100560008180e80054a0b4000300e000e2ff3a00fc
:10057000000006009102ba00055978008301e900e5
:10058000f7ff3200c82ade00055978008301e90030
:10059000f3ff32000400e000f1ff320011d9ba008d
:1005a000eeff37000040da000000fe0021e2a90063
:1005b0000000fa002168a9000080fa002188a90043
:1005c0000168a9000188a9000000060031e2a90025
:1005d0000000fa0023c8a9000080fa0023e8a9005f
:0c05e00003c8a90003e8a9000000060001
:020000040000fa
:1005ec000200fa00000f78001e027800a4118800a7
:1005fc0000000000951180000410200004826200ad
:10060c00e00f5200fbff320014002000d481880060
:10061c000400370000000000d48180000402e800d0
:10062c00d4818800d4818000f30f5200f9ff36008a
:10063c000080fa00000006000000fa000042eb0007
:10064c000443780095032100864a78001a0037008d
:10065c0094032100144278008482fb0024012100c1
:10066c0004824200144278000482fb0024118800aa
:10067c0000000000151180000410200004826200ac
:10068c00e00f5200fbff32000000000000000000f1
:10069c00000000000000000000000000000000004e
:1006ac0094032100144278000442e80004437800cb
:1006bc0095032100864a78009403210014427800a7
:1006cc00e54f5200e2ff36000042eb000443780095
:1006dc0095032100864a78000700370000000000cf
:1006ec0094032100144278000442e800044378008b
:1006fc0095032100864a7800940321001442780067
:10070c00fd4f5200f5ff36000080fa000000060095
:10071c000000fa0024eea80014002000d481880008
:10072c000400370000000000d48180000402e800bf
:10073c00d4818800d4818000f30f5200f9ff360079
:10074c000042eb000443780095032100864a7800b0
:10075c000f00370094032100144278008482fb00c0
:10076c000400210004824200144278000482fb0041
:10077c00040078009aff07009403210014427800cb
:10078c000442e8000443780095032100864a78006f
:10079c009403210014427800eb4f5200edff360019
:1007ac0024eea9000080fa00000006000400fa0004
:1007bc00100798000042eb00044f7800030037004c
:1007cc0027000900000000001e4fe8001e427800c0
:1007dc008482fb001e029000848f5200f8ff3900c7
:1007ec000080fa00000006000400fa0010079800d0
:1007fc000042eb00044f78000200370000000000bc
:10080c001e4fe8001e4278008482fb001e029000fe
:10081c00848f5200f9ff39000080fa0000000600b6
:10082c000200fa00000f78001e0278006506200016
:10083c00850f52008e00320065062000850f520095
:10084c0007003e0045062000850f52005400320080
:10085c0055062000850f52006b0032009e003700b9
:10086c00d5142000850f52001a003200753e20006e
:10087c00850f52000d003200f5062000850f520046
:10088c0095003a00f4062000441388000000000094
:10089c000413800061026200e00f5200fcff320082
:1008ac0044138000648288008e003700743e200060
:1008bc0044138800000000000413800061026200f1
:1008cc00e00f5200fcff3200441380006482880069
:1008dc0084003700d414200044138800000000006a
:1008ec000413800061026200e00f5200fcff320032
:1008fc004413800064828800340020003482880015
:10090c000042eb000443780095032100864a7800ee
:10091c001c00370030002000b3ff0700000000006f
:10092c000413800062026200e00f5200fcff3a00e8
:10093c00d41420004413880000000000041380002d
:10094c0061026200e00f5200fcff320094032100b0
:10095c00144278000482fb0045138000040342001b
:10096c00e403210004024300050a780094032100eb
:10097c00144278000442e8000443780095032100f7
:10098c00864a780094032100144278008482fb008c
:10099c0034828000848f5200deff39005100370012
:1009ac00440620004413880000000000041380005b
:1009bc0061026200e00f5200fcff32004413800021
:1009cc00648288003000200087ff070000000000d0
:1009dc000413800062026200e00f5200fcff3a0038
:1009ec00f48280004413880000000000041380008f
:1009fc0061026200e00f5200fcff320044138000e1
:100a0c0064828800370037005406200044138800a5
:100a1c00000000000413800061026200e00f52002d
:100a2c00fcff3200441380006482880030002000f8
:100a3c006dff0700000000000413800062026200da
:100a4c00e00f5200fcff3a0004838000441388003e
:100a5c00000000000413800061026200e00f5200ed
:100a6c00fcff320044138000648288001d003700b4
:100a7c00640620004413880000000000041380006a
:100a8c0061026200e00f5200fcff32004413800050
:100a9c00648288003000200053ff07000000000033
:100aac000413800062026200e00f5200fcff3a0067
:100abc00148380004413880000000000041380009d
:100acc0061026200e00f5200fcff32004413800010
:100adc0064828800030037000002eb004413880096
:100aec00000000000080fa0000000600849fbe0099
:100afc00861f78000000fa000068a90014c0b3003b
:100b0c000443780045032100864a78000080fa00ef
:100b1c004f0378004f02be0000400600849fbe00c9
:100b2c00861f78000000fa0000000000941180007d
:100b3c0061026200e00f5200fcff3200b411800031
:100b4c007480880075808000f40f2000848f520020
:100b5c001200360074808000044278000443780050
:100b6c0015012100864a7800150121009542780074
:100b7c00840621001442780084cf520004003a000d
:100b8c0032a2a90014002000448288001e00370005
:100b9c000002eb00448288001b0037004482800076
:100bac00e10f520003003200e20f52000600320047
:100bbc0015003700748080006480880024002000b9
:100bcc0044828800100037007480800054828800b2
:100bdc000002eb004482880032a2a80014c0b300cb
:100bec000443780055032100864a78005482800023
:100bfc00e00f52000300320054828000e48288002f
:100c0c0001003700000000003222a90003c8a9002f
:100c1c000080fa004f0378004f02be00004006002f
:100c2c00849fbe000000fa0004188000b480880085
:100c3c001418800005002000c4808800d58088002e
:100c4c002418800005002000e4808800f5808800ce
:100c5c00341880000500200004818800158188006c
:100c6c0044188000b48088005418800005002000cf
:100c7c0024818800358188006418800005002000dc
:100c8c00448188005581880074188000050020007c
:100c9c00648188007581880001a8a9000080fa0091
:100cac004f02be0000400600849fbe00861f7800e5
:100cbc000000fa0014c0b30004437800850321003f
:100ccc00864a78003408800084818800020037004e
:100cdc00240a8000b4808800040a80006802620044
:100cec00e00f5200faff3a000002eb0034088800d3
:100cfc000028a9000080fa004f0378004f02be00c4
:100d0c0000400600841f78000000fa0034088000c0
:100d1c009481880000a8a9000080fa004f02780096
:100d2c00004006000000fa000080fa0000400600b7
:100d3c00841f78000000fa000000000014118000ed
:100d4c0061026200e00f5200fcff32002222a90077
:100d5c000168a9000080fa004f02780000400600ec
:100d6c000000fa0040a7a90044042000343a88008f
:100d7c00243a80000460a1000470a100243a880089
:100d8c00253a800004fe2f0004826200243a880079
:100d9c003600200084072000a509200037742000ad
:100dac00844b7800854b7800864b7800143a800091
:100dbc00040378000600a0006404200075052000e0
:100dcc0027742000844b7800854b7800864b780084
:100ddc0000000000153a80000400270084826200a5
:100dec0004002300848f5200faff3a000000000038
:100dfc00153a80000402200004826200e00f5200c9
:100e0c00fbff32000002eb0024088800240880005d
:100e1c000440a1000450a100240888000068a90027
:100e2c000442800004c0a10004d0a00004e0a00093
:100e3c00044288002068a800848b280014088800cd
:100e4c000002eb0004088800ddfd07001400200000
:100e5c00c411880023c8a90003c8a90074428000eb
:100e6c000480a0000490a00004a0a000744288009c
:100e7c0031e2a80031a2a9003182a9003162a80098
:100e8c00841180000480a1000490a10084118800ca
:100e9c0030e2a80030c2a90030a2a9003082a9001b
:100eac003062a800841180000410a0000420a0006f
:100ebc00841188003002a90033c2a9003362a90052
:100ecc003342a80032a2a8003222a900941180005b
:100edc000460a1000470a10094118800b0fd07000b
:100eec0014012000441188002168a9000168a900a0
:100efc002442800004c0a00004d0a10004e0a100a2
:100f0c002442880021e2a80021a2a9002182a90084
:100f1c002162a800041180000480a1000490a100ab
:100f2c000411880020e2a80020c2a90020a2a90078
:100f3c002082a9002062a800041180000410a100e6
:100f4c000420a100041188002002a90023c2a900da
:100f5c002362a9002342a80022a2a9002222a900f0
:100f6c00141180000460a0000470a000141188000b
:100f7c0021a8a90001a8a900344280000440a000c7
:100f8c000450a1000460a000344288003303a9007f
:100f9c0021e3a90021a3a9002143a9000419800081
:100fac000480a1000490a100041988000419800099
:100fbc000450a0000460a0000470a0000419880074
:100fcc002083a9002063a8002043a9002023a900a6
:100fdc002003a9001419800004d0a10004e0a10092
:100fec0004f0a100141988002343a90014198000ef
:100ffc000480a0000490a00014198800151980002a
:10100c0034f82f00048262000420a0001419880018
:10101c002223a9002203a80025e3a900251980009a
:10102c00f40f2e008482620004f02000050272008e
:10103c0024198800e4c1b300044378004532200031
:10104c00864a78003303a9002703a9002763a90067
:10105c002783a900341980000490a10004a0a100ea
:10106c00341988002603a8002663a9002683a9004a
:10107c00341980000410a1000420a1003419880048
:10108c0029e3a9004519800004f023000502720031
:10109c004419880028e3a90045198000f4032000b6
:1010ac0005027200441988002028a8000028a90015
:1010bc00044280000440a0000450a0000460a10081
:1010cc000442880041a1a900040a800004a0a000e9
:1010dc0004b0a10004c0a100040a8800040a800026
:1010ec000450a1000460a100040a8800040a8000d6
:1010fc000400a1000410a1000420a100040a88002f
:10110c004301a90042e1a8000002eb00840888001a
:10111c0011e1a900840880000440a0000450a00044
:10112c00840888001061a9001021a90020e8a900fa
:10113c0020a8a90000a8a900144280000440a10026
:10114c000450a1000460a1001442880049a1a90028
:10115c00440a800004a0a00004b0a10004c0a100b7
:10116c00440a8800440a80000450a1000460a100d5
:10117c00440a8800440a80000400a1000410a10065
:10118c000420a100440a88004b01a9004ae1a800f0
:10119c00000ea800002ea800010ea800100ea8003a
:1011ac00102ea800104ea800106ea800108ea900da
:1011bc0010aea80010cea80010eea900110ea900c8
:1011cc00112ea800118ea80011aea8000002eb0091
:1011dc0004718800202ea800204ea80021aea80083
:1011ec000002eb0084718800512ea80061eea8006b
:1011fc000002eb00747088000002eb00f4708800b1
:10120c000002eb00747188000002eb00747388001c
:10121c000e0ea8000e2ea8001e0ea8001e2ea80052
:10122c001e4ea8001e6ea800148ea80024cea80086
:10123c0024eea9002536800004f82f0004826200f9
:10124c008401b300243688001534800004fc2f0080
:10125c00048262000400a00014348800353680003b
:10126c0004f82f00848262009402200005027200b0
:10127c00343688006534800004fc2f000482620040
:10128c003400b300643488006536800004f82f0005
:10129c0084826200d4032000050272006436880048
:1012ac0025348000f40f2c0084826200048020001e
:1012bc00050272002434880065368000f40f280083
:1012cc008482620004802200050272006436880069
:1012dc003534800004fc2f00048262009400b300bb
:1012ec00343488007535800004f82f008482620045
:1012fc00c402200005027200743588007535800028
:10130c00f40f28008482620004102300050272008e
:10131c00743588000535800004f027000502720042
:10132c00043588000428a9002428a90084428000e0
:10133c000440a0000450a1000460a1008442880075
:10134c006382a9006362a9006342a80062a2a8009c
:10135c006322a9006302a90062e2a90062c2a9008b
:10136c00141380000420a1000430a0000440a0004d
:10137c0014138800141380000400a1000410a000b2
:10138c00141388000080fa00000006000000fa0028
:10139c000042eb000443780045032100864a7800a4
:1013ac000042eb000443780055032100864a780084
:1013bc0094c0b3000443780085062100864a780067
:1013cc0014c0b3000443780095032100864a7800ca
:1013dc0024eea90023c8a800252ea90034cea9000c
:1013ec0034aea900250ea90035aea900358ea90092
:1013fc000002eb000408880005e1a8000002eb00e5
:10140c003408880011e1a800040a80000400a1003f
:10141c000410a0000420a100040a88002028a900c0
:10142c000002eb0084818800440a80000400a100c3
:10143c000410a0000420a100440a880020a8a900e0
:10144c0021a8a90021e3a80021e2a8002168a80096
:10145c0014c0b3000443780095032100864a780039
:10146c000e00370094032100144278000483fb0023
:10147c0095032100954278002401210004024300c9
:10148c00054a780094032100144278000442e800d5
:10149c000443780095032100864a780094032100c8
:1014ac0014427800e44f5200eeff3600f4c6b3004d
:1014bc000443780025012100864a7800e4cdb3006e
:1014cc000443780075012100864a780061e2a80087
:1014dc0060c2a9000428a9002428a9000080fa00f1
:1014ec00000006000000fa001dfe0700a7ff070021
:1014fc000100370000000000440321001442780072
:10150c00e04f52002b0032000042eb000443780005
:10151c0045032100864a7800a47180004c22de002d
:10152c006142620004c2ea00614262000482fb0074
:10153c00610262004c22dd00a6718000f5ff2e00d6
:10154c008502630005027200a4718800d01420008b
:10155c00b3fc070024838000e00f5200120032001d
:10156c00a47180004622de006142620004c2ea00df
:10157c00614262000482fb00610262004622dd00cf
:10158c00a6718000f5fb2f00850263000502720036
:10159c00a47188000002eb0024838800548380002f
:1015ac00040078009efc0700d48280000402e8004e
:1015bc00d48288005403210014427800e04f52007a
:1015cc00ccff3200648080006123b8000082eb0005
:1015dc008082eb000602420087824a0056002000ff
:1015ec0007002000860f5200878f5a002d003e0006
:1015fc0004060100050037000b003700110037000e
:10160c0013003700190037001f003700252ea900e2
:10161c0034aea800f4062000548388001400200087
:10162c00248388002000370034aea900252ea800a2
:10163c00743e20005483880014002000248388000a
:10164c00190037001400200034838800160037007e
:10165c004406200054838800140020002483880052
:10166c0054828000f48288000f003700540620005a
:10167c005483880014002000248388005482800046
:10168c000483880008003700640620005483880017
:10169c001400200024838800548280001483880066
:1016ac000100370000000000f4c6b30004437800ca
:1016bc0005002100864a7800f481800004427800fd
:1016cc000443780015002100864a7800f4818000dc
:1016dc004822de00044278000443780025002100f3
:1016ec00864a780004828000044278000443780023
:1016fc0035002100864a7800048280004822de00f2
:10170c00044278000443780045002100864a7800a2
:10171c0014828000044278000443780055002100b4
:10172c00864a7800148280004822de000442780049
:10173c000443780065002100864a7800d48280003a
:10174c00044278000443780075002100864a780032
:10175c0024c1b3000443780085002100864a780038
:10176c0034c1b3000443780095002100864a780008
:10177c00e4c6b30004437800a5002100864a780033
:10178c00e4cdb30004437800b5002100864a78000c
:10179c00d48280000402e800d48288001400200067
:1017ac003483880034838000e10f520003003a0038
:1017bc00d7fb07000002eb00348388000042eb00eb
:1017cc000443780055032100864a78004aff37000d
:020000040000fa
:1017dc00001000006a000000800000006a10000089
:1017ec000400000082000000e703e7000300000093
:0417fc0000000000e9
:020000040000fa
:02000004000af0
:04afe000ceff0000a0
:020000040000fa
:02000004000af0
:04afe400ffff00006b
:020000040000fa
:02000004000af0
:04afe8007fff0000e7
:020000040000fa
:02000004000af0
:04afec005dff000005
:020000040000fa
:02000004000af0
:04aff00038ff000026
:020000040000fa
:02000004000af0
:04aff400cfff00008b
:00000001FF
